{
  "contractName": "NFTMarket",
  "abi": [
    {
      "anonymous": false,
      "inputs": [
        {
          "indexed": true,
          "internalType": "uint256",
          "name": "itemId",
          "type": "uint256"
        },
        {
          "indexed": true,
          "internalType": "address",
          "name": "nftContract",
          "type": "address"
        },
        {
          "indexed": true,
          "internalType": "uint256",
          "name": "tokenId",
          "type": "uint256"
        },
        {
          "indexed": false,
          "internalType": "address",
          "name": "seller",
          "type": "address"
        },
        {
          "indexed": false,
          "internalType": "address",
          "name": "owner",
          "type": "address"
        },
        {
          "indexed": false,
          "internalType": "uint256",
          "name": "price",
          "type": "uint256"
        },
        {
          "indexed": false,
          "internalType": "bool",
          "name": "sold",
          "type": "bool"
        }
      ],
      "name": "MarketItemCreated",
      "type": "event"
    },
    {
      "inputs": [],
      "name": "getListingPrice",
      "outputs": [
        {
          "internalType": "uint256",
          "name": "",
          "type": "uint256"
        }
      ],
      "stateMutability": "view",
      "type": "function",
      "constant": true
    },
    {
      "inputs": [
        {
          "internalType": "address",
          "name": "nftContract",
          "type": "address"
        },
        {
          "internalType": "address",
          "name": "seller",
          "type": "address"
        },
        {
          "internalType": "uint256",
          "name": "tokenId",
          "type": "uint256"
        },
        {
          "internalType": "uint256",
          "name": "price",
          "type": "uint256"
        }
      ],
      "name": "createMarketItem",
      "outputs": [],
      "stateMutability": "payable",
      "type": "function",
      "payable": true
    }
  ],
  "bytecode": "0x60806040526658d15e1762800060035534801561001b57600080fd5b50600160008190555061087d806100336000396000f3fe6080604052600436106100295760003560e01c806312e855851461002e5780636a95054f14610059575b600080fd5b34801561003a57600080fd5b50610043610075565b60405161005091906107a5565b60405180910390f35b610073600480360381019061006e91906104f3565b61007f565b005b6000600354905090565b600260005414156100c5576040517f08c379a00000000000000000000000000000000000000000000000000000000081526004016100bc90610765565b60405180910390fd5b600260008190555060008111610110576040517f08c379a000000000000000000000000000000000000000000000000000000000815260040161010790610785565b60405180910390fd5b6003543414610154576040517f08c379a000000000000000000000000000000000000000000000000000000000815260040161014b90610725565b60405180910390fd5b61015e60016104a5565b600061016a60016104bb565b90506040518060e001604052808281526020018673ffffffffffffffffffffffffffffffffffffffff1681526020018481526020018573ffffffffffffffffffffffffffffffffffffffff1681526020013073ffffffffffffffffffffffffffffffffffffffff16815260200183815260200160001515815250600460008381526020019081526020016000206000820151816000015560208201518160010160006101000a81548173ffffffffffffffffffffffffffffffffffffffff021916908373ffffffffffffffffffffffffffffffffffffffff1602179055506040820151816002015560608201518160030160006101000a81548173ffffffffffffffffffffffffffffffffffffffff021916908373ffffffffffffffffffffffffffffffffffffffff16021790555060808201518160040160006101000a81548173ffffffffffffffffffffffffffffffffffffffff021916908373ffffffffffffffffffffffffffffffffffffffff16021790555060a0820151816005015560c08201518160060160006101000a81548160ff021916908315150217905550905050600161034e576040517f08c379a000000000000000000000000000000000000000000000000000000000815260040161034590610745565b60405180910390fd5b8473ffffffffffffffffffffffffffffffffffffffff166323b872dd8530866040518463ffffffff1660e01b815260040161038b939291906106a9565b600060405180830381600087803b1580156103a557600080fd5b505af11580156103b9573d6000803e3d6000fd5b5050505060016103fe576040517f08c379a00000000000000000000000000000000000000000000000000000000081526004016103f590610745565b60405180910390fd5b828573ffffffffffffffffffffffffffffffffffffffff16827f045dfa01dcba2b36aba1d3dc4a874f4b0c5d2fbeb8d2c4b34a7d88c8d8f929d1873087600060405161044d94939291906106e0565b60405180910390a46001610496576040517f08c379a000000000000000000000000000000000000000000000000000000000815260040161048d90610745565b60405180910390fd5b50600160008190555050505050565b6001816000016000828254019250508190555050565b600081600001549050919050565b6000813590506104d881610819565b92915050565b6000813590506104ed81610830565b92915050565b6000806000806080858703121561050957600080fd5b6000610517878288016104c9565b9450506020610528878288016104c9565b9350506040610539878288016104de565b925050606061054a878288016104de565b91505092959194509250565b61055f816107d1565b82525050565b61056e816107e3565b82525050565b60006105816024836107c0565b91507f5072696365206d75737420626520657175616c20746f206c697374696e67207060008301527f72696365000000000000000000000000000000000000000000000000000000006020830152604082019050919050565b60006105e76004836107c0565b91507f70617373000000000000000000000000000000000000000000000000000000006000830152602082019050919050565b6000610627601f836107c0565b91507f5265656e7472616e637947756172643a207265656e7472616e742063616c6c006000830152602082019050919050565b6000610667601c836107c0565b91507f5072696365206d757374206265206174206c65617374203120776569000000006000830152602082019050919050565b6106a38161080f565b82525050565b60006060820190506106be6000830186610556565b6106cb6020830185610556565b6106d8604083018461069a565b949350505050565b60006080820190506106f56000830187610556565b6107026020830186610556565b61070f604083018561069a565b61071c6060830184610565565b95945050505050565b6000602082019050818103600083015261073e81610574565b9050919050565b6000602082019050818103600083015261075e816105da565b9050919050565b6000602082019050818103600083015261077e8161061a565b9050919050565b6000602082019050818103600083015261079e8161065a565b9050919050565b60006020820190506107ba600083018461069a565b92915050565b600082825260208201905092915050565b60006107dc826107ef565b9050919050565b60008115159050919050565b600073ffffffffffffffffffffffffffffffffffffffff82169050919050565b6000819050919050565b610822816107d1565b811461082d57600080fd5b50565b6108398161080f565b811461084457600080fd5b5056fea264697066735822122043d7fb67b1cf13ce7d50c7554aecf23121cf1f841dacb8844dd9307f1f1edf4a64736f6c63430008000033",
  "immutableReferences": {},
  "source": "// SPDX-License-Identifier: MIT OR Apache-2.0\r\npragma solidity ^0.8.0;\r\n\r\nimport \"@openzeppelin/contracts/utils/Counters.sol\";\r\nimport \"@openzeppelin/contracts/security/ReentrancyGuard.sol\";\r\nimport \"@openzeppelin/contracts/token/ERC721/ERC721.sol\";\r\n\r\nimport \"hardhat/console.sol\";\r\n\r\ncontract NFTMarket is ReentrancyGuard {\r\n  using Counters for Counters.Counter;\r\n  Counters.Counter private _itemIds;\r\n  Counters.Counter private _itemsSold;\r\n\r\n  uint256 listingPrice = 0.025 ether;\r\n\r\n  struct MarketItem {\r\n    uint itemId;\r\n    address nftContract;\r\n    uint256 tokenId;\r\n    address payable seller;\r\n    address payable owner;\r\n    uint256 price;\r\n    bool sold;\r\n  }\r\n\r\n  mapping(uint256 => MarketItem) private idToMarketItem;\r\n\r\n  event MarketItemCreated (\r\n    uint indexed itemId,\r\n    address indexed nftContract,\r\n    uint256 indexed tokenId,\r\n    address seller,\r\n    address owner,\r\n    uint256 price,\r\n    bool sold\r\n  );\r\n\r\n  /* Returns the listing price of the contract */\r\n  function getListingPrice() public view returns (uint256) {\r\n    return listingPrice;\r\n  }\r\n  \r\n  /* Places an item for sale on the marketplace */\r\n  function createMarketItem(\r\n    address nftContract,\r\n    address seller,\r\n    uint256 tokenId,\r\n    uint256 price\r\n  ) public payable nonReentrant {\r\n    require(price > 0, \"Price must be at least 1 wei\");\r\n    require(msg.value == listingPrice, \"Price must be equal to listing price\");\r\n\r\n    _itemIds.increment();\r\n    uint256 itemId = _itemIds.current();\r\n  \r\n    idToMarketItem[itemId] =  MarketItem(\r\n      itemId,\r\n      nftContract,\r\n      tokenId,\r\n      payable(seller),\r\n      payable(address(this)),\r\n      price,\r\n      false\r\n    );\r\n\r\n    require(true, \"pass\");\r\n\r\n    IERC721(nftContract).transferFrom(seller, address(this), tokenId);\r\n\r\n    require(true, \"pass\");\r\n\r\n    emit MarketItemCreated(\r\n      itemId,\r\n      nftContract,\r\n      tokenId,\r\n      seller,\r\n      address(this),\r\n      price,\r\n      false\r\n    );\r\n\r\n    require(true, \"pass\");\r\n  }\r\n\r\n  // /* Creates the sale of a marketplace item */\r\n  // /* Transfers ownership of the item, as well as funds between parties */\r\n  // function createMarketSale(\r\n  //   address nftContract,\r\n  //   uint256 itemId\r\n  //   ) public payable nonReentrant {\r\n  //   uint price = idToMarketItem[itemId].price;\r\n  //   uint tokenId = idToMarketItem[itemId].tokenId;\r\n  //   require(msg.value == price, \"Please submit the asking price in order to complete the purchase\");\r\n\r\n  //   idToMarketItem[itemId].seller.transfer(msg.value);\r\n  //   IERC721(nftContract).transferFrom(address(this), msg.sender, tokenId);\r\n  //   idToMarketItem[itemId].owner = payable(msg.sender);\r\n  //   idToMarketItem[itemId].sold = true;\r\n  //   _itemsSold.increment();\r\n  //   payable(owner).transfer(listingPrice);\r\n  // }\r\n\r\n  // /* Returns all unsold market items */\r\n  // function fetchMarketItems() public view returns (MarketItem[] memory) {\r\n  //   uint itemCount = _itemIds.current();\r\n  //   uint unsoldItemCount = _itemIds.current() - _itemsSold.current();\r\n  //   uint currentIndex = 0;\r\n\r\n  //   MarketItem[] memory items = new MarketItem[](unsoldItemCount);\r\n  //   for (uint i = 0; i < itemCount; i++) {\r\n  //     if (idToMarketItem[i + 1].owner == address(0)) {\r\n  //       uint currentId = i + 1;\r\n  //       MarketItem storage currentItem = idToMarketItem[currentId];\r\n  //       items[currentIndex] = currentItem;\r\n  //       currentIndex += 1;\r\n  //     }\r\n  //   }\r\n  //   return items;\r\n  // }\r\n\r\n  // /* Returns onlyl items that a user has purchased */\r\n  // function fetchMyNFTs() public view returns (MarketItem[] memory) {\r\n  //   uint totalItemCount = _itemIds.current();\r\n  //   uint itemCount = 0;\r\n  //   uint currentIndex = 0;\r\n\r\n  //   for (uint i = 0; i < totalItemCount; i++) {\r\n  //     if (idToMarketItem[i + 1].owner == msg.sender) {\r\n  //       itemCount += 1;\r\n  //     }\r\n  //   }\r\n\r\n  //   MarketItem[] memory items = new MarketItem[](itemCount);\r\n  //   for (uint i = 0; i < totalItemCount; i++) {\r\n  //     if (idToMarketItem[i + 1].owner == msg.sender) {\r\n  //       uint currentId = i + 1;\r\n  //       MarketItem storage currentItem = idToMarketItem[currentId];\r\n  //       items[currentIndex] = currentItem;\r\n  //       currentIndex += 1;\r\n  //     }\r\n  //   }\r\n  //   return items;\r\n  // }\r\n\r\n  // /* Returns only items a user has created */\r\n  // function fetchItemsCreated() public view returns (MarketItem[] memory) {\r\n  //   uint totalItemCount = _itemIds.current();\r\n  //   uint itemCount = 0;\r\n  //   uint currentIndex = 0;\r\n\r\n  //   for (uint i = 0; i < totalItemCount; i++) {\r\n  //     if (idToMarketItem[i + 1].seller == msg.sender) {\r\n  //       itemCount += 1;\r\n  //     }\r\n  //   }\r\n\r\n  //   MarketItem[] memory items = new MarketItem[](itemCount);\r\n  //   for (uint i = 0; i < totalItemCount; i++) {\r\n  //     if (idToMarketItem[i + 1].seller == msg.sender) {\r\n  //       uint currentId = i + 1;\r\n  //       MarketItem storage currentItem = idToMarketItem[currentId];\r\n  //       items[currentIndex] = currentItem;\r\n  //       currentIndex += 1;\r\n  //     }\r\n  //   }\r\n  //   return items;\r\n  // }\r\n}",
  "sourcePath": "/home/ton/nft-marketplace-server/src/contracts/Market.sol",
  "compiler": {
    "name": "solc",
    "version": "0.8.0+commit.c7dfd78e.Emscripten.clang"
  },
  "schemaVersion": "3.4.3",
  "updatedAt": "2022-01-15T19:01:32.970Z",
  "networkType": "ethereum",
  "devdoc": {
    "kind": "dev",
    "methods": {},
    "version": 1
  },
  "userdoc": {
    "kind": "user",
    "methods": {},
    "version": 1
  }
}