{
  "_format": "hh-sol-artifact-1",
  "contractName": "RuNFT",
  "sourceName": "contracts/RuNFT.sol",
  "abi": [
    {
      "inputs": [],
      "stateMutability": "nonpayable",
      "type": "constructor"
    },
    {
      "anonymous": false,
      "inputs": [
        {
          "indexed": true,
          "internalType": "address",
          "name": "owner",
          "type": "address"
        },
        {
          "indexed": true,
          "internalType": "address",
          "name": "approved",
          "type": "address"
        },
        {
          "indexed": true,
          "internalType": "uint256",
          "name": "tokenId",
          "type": "uint256"
        }
      ],
      "name": "Approval",
      "type": "event"
    },
    {
      "anonymous": false,
      "inputs": [
        {
          "indexed": true,
          "internalType": "address",
          "name": "owner",
          "type": "address"
        },
        {
          "indexed": true,
          "internalType": "address",
          "name": "operator",
          "type": "address"
        },
        {
          "indexed": false,
          "internalType": "bool",
          "name": "approved",
          "type": "bool"
        }
      ],
      "name": "ApprovalForAll",
      "type": "event"
    },
    {
      "anonymous": false,
      "inputs": [
        {
          "indexed": true,
          "internalType": "address",
          "name": "previousOwner",
          "type": "address"
        },
        {
          "indexed": true,
          "internalType": "address",
          "name": "newOwner",
          "type": "address"
        }
      ],
      "name": "OwnershipTransferred",
      "type": "event"
    },
    {
      "anonymous": false,
      "inputs": [
        {
          "indexed": false,
          "internalType": "address",
          "name": "",
          "type": "address"
        },
        {
          "indexed": false,
          "internalType": "uint256",
          "name": "",
          "type": "uint256"
        }
      ],
      "name": "Received",
      "type": "event"
    },
    {
      "anonymous": false,
      "inputs": [
        {
          "indexed": true,
          "internalType": "address",
          "name": "from",
          "type": "address"
        },
        {
          "indexed": true,
          "internalType": "address",
          "name": "to",
          "type": "address"
        },
        {
          "indexed": true,
          "internalType": "uint256",
          "name": "tokenId",
          "type": "uint256"
        }
      ],
      "name": "Transfer",
      "type": "event"
    },
    {
      "inputs": [
        {
          "internalType": "address",
          "name": "to",
          "type": "address"
        },
        {
          "internalType": "uint256",
          "name": "tokenId",
          "type": "uint256"
        }
      ],
      "name": "approve",
      "outputs": [],
      "stateMutability": "nonpayable",
      "type": "function"
    },
    {
      "inputs": [
        {
          "internalType": "address",
          "name": "owner",
          "type": "address"
        }
      ],
      "name": "balanceOf",
      "outputs": [
        {
          "internalType": "uint256",
          "name": "",
          "type": "uint256"
        }
      ],
      "stateMutability": "view",
      "type": "function"
    },
    {
      "inputs": [
        {
          "internalType": "address",
          "name": "buyer",
          "type": "address"
        },
        {
          "internalType": "uint256",
          "name": "tokenId",
          "type": "uint256"
        }
      ],
      "name": "buyNFT",
      "outputs": [],
      "stateMutability": "payable",
      "type": "function"
    },
    {
      "inputs": [
        {
          "internalType": "uint256",
          "name": "tokenId",
          "type": "uint256"
        }
      ],
      "name": "getApproved",
      "outputs": [
        {
          "internalType": "address",
          "name": "",
          "type": "address"
        }
      ],
      "stateMutability": "view",
      "type": "function"
    },
    {
      "inputs": [
        {
          "internalType": "uint256",
          "name": "",
          "type": "uint256"
        }
      ],
      "name": "idToMarketItem",
      "outputs": [
        {
          "internalType": "uint256",
          "name": "itemId",
          "type": "uint256"
        },
        {
          "internalType": "string",
          "name": "tokenURI",
          "type": "string"
        },
        {
          "internalType": "address payable",
          "name": "owner",
          "type": "address"
        },
        {
          "internalType": "uint256",
          "name": "price",
          "type": "uint256"
        },
        {
          "internalType": "bool",
          "name": "sell",
          "type": "bool"
        }
      ],
      "stateMutability": "view",
      "type": "function"
    },
    {
      "inputs": [
        {
          "internalType": "address",
          "name": "owner",
          "type": "address"
        },
        {
          "internalType": "address",
          "name": "operator",
          "type": "address"
        }
      ],
      "name": "isApprovedForAll",
      "outputs": [
        {
          "internalType": "bool",
          "name": "",
          "type": "bool"
        }
      ],
      "stateMutability": "view",
      "type": "function"
    },
    {
      "inputs": [
        {
          "internalType": "address",
          "name": "recipient",
          "type": "address"
        },
        {
          "internalType": "string",
          "name": "tokenURI",
          "type": "string"
        }
      ],
      "name": "mintNFT",
      "outputs": [
        {
          "internalType": "uint256",
          "name": "",
          "type": "uint256"
        }
      ],
      "stateMutability": "nonpayable",
      "type": "function"
    },
    {
      "inputs": [],
      "name": "name",
      "outputs": [
        {
          "internalType": "string",
          "name": "",
          "type": "string"
        }
      ],
      "stateMutability": "view",
      "type": "function"
    },
    {
      "inputs": [],
      "name": "owner",
      "outputs": [
        {
          "internalType": "address",
          "name": "",
          "type": "address"
        }
      ],
      "stateMutability": "view",
      "type": "function"
    },
    {
      "inputs": [
        {
          "internalType": "uint256",
          "name": "tokenId",
          "type": "uint256"
        }
      ],
      "name": "ownerOf",
      "outputs": [
        {
          "internalType": "address",
          "name": "",
          "type": "address"
        }
      ],
      "stateMutability": "view",
      "type": "function"
    },
    {
      "inputs": [],
      "name": "renounceOwnership",
      "outputs": [],
      "stateMutability": "nonpayable",
      "type": "function"
    },
    {
      "inputs": [
        {
          "internalType": "address",
          "name": "from",
          "type": "address"
        },
        {
          "internalType": "address",
          "name": "to",
          "type": "address"
        },
        {
          "internalType": "uint256",
          "name": "tokenId",
          "type": "uint256"
        }
      ],
      "name": "safeTransferFrom",
      "outputs": [],
      "stateMutability": "nonpayable",
      "type": "function"
    },
    {
      "inputs": [
        {
          "internalType": "address",
          "name": "from",
          "type": "address"
        },
        {
          "internalType": "address",
          "name": "to",
          "type": "address"
        },
        {
          "internalType": "uint256",
          "name": "tokenId",
          "type": "uint256"
        },
        {
          "internalType": "bytes",
          "name": "_data",
          "type": "bytes"
        }
      ],
      "name": "safeTransferFrom",
      "outputs": [],
      "stateMutability": "nonpayable",
      "type": "function"
    },
    {
      "inputs": [
        {
          "internalType": "address",
          "name": "to",
          "type": "address"
        },
        {
          "internalType": "uint256",
          "name": "tokenId",
          "type": "uint256"
        },
        {
          "internalType": "uint256",
          "name": "price",
          "type": "uint256"
        }
      ],
      "name": "sellNFT",
      "outputs": [],
      "stateMutability": "nonpayable",
      "type": "function"
    },
    {
      "inputs": [
        {
          "internalType": "address",
          "name": "operator",
          "type": "address"
        },
        {
          "internalType": "bool",
          "name": "approved",
          "type": "bool"
        }
      ],
      "name": "setApprovalForAll",
      "outputs": [],
      "stateMutability": "nonpayable",
      "type": "function"
    },
    {
      "inputs": [
        {
          "internalType": "bytes4",
          "name": "interfaceId",
          "type": "bytes4"
        }
      ],
      "name": "supportsInterface",
      "outputs": [
        {
          "internalType": "bool",
          "name": "",
          "type": "bool"
        }
      ],
      "stateMutability": "view",
      "type": "function"
    },
    {
      "inputs": [],
      "name": "symbol",
      "outputs": [
        {
          "internalType": "string",
          "name": "",
          "type": "string"
        }
      ],
      "stateMutability": "view",
      "type": "function"
    },
    {
      "inputs": [],
      "name": "testTransfer",
      "outputs": [],
      "stateMutability": "payable",
      "type": "function"
    },
    {
      "inputs": [
        {
          "internalType": "uint256",
          "name": "tokenId",
          "type": "uint256"
        }
      ],
      "name": "tokenURI",
      "outputs": [
        {
          "internalType": "string",
          "name": "",
          "type": "string"
        }
      ],
      "stateMutability": "view",
      "type": "function"
    },
    {
      "inputs": [],
      "name": "totalSupply",
      "outputs": [
        {
          "internalType": "uint256",
          "name": "",
          "type": "uint256"
        }
      ],
      "stateMutability": "view",
      "type": "function"
    },
    {
      "inputs": [
        {
          "internalType": "address",
          "name": "from",
          "type": "address"
        },
        {
          "internalType": "address",
          "name": "to",
          "type": "address"
        },
        {
          "internalType": "uint256",
          "name": "tokenId",
          "type": "uint256"
        }
      ],
      "name": "transferFrom",
      "outputs": [],
      "stateMutability": "nonpayable",
      "type": "function"
    },
    {
      "inputs": [
        {
          "internalType": "address",
          "name": "newOwner",
          "type": "address"
        }
      ],
      "name": "transferOwnership",
      "outputs": [],
      "stateMutability": "nonpayable",
      "type": "function"
    },
    {
      "stateMutability": "payable",
      "type": "receive"
    }
  ],
  "bytecode": "0x60806040523480156200001157600080fd5b506040518060400160405280600581526020017f52754e46540000000000000000000000000000000000000000000000000000008152506040518060400160405280600381526020017f4e46540000000000000000000000000000000000000000000000000000000000815250816000908051906020019062000096929190620001a6565b508060019080519060200190620000af929190620001a6565b505050620000d2620000c6620000d860201b60201c565b620000e060201b60201c565b620002bb565b600033905090565b6000600760009054906101000a900473ffffffffffffffffffffffffffffffffffffffff16905081600760006101000a81548173ffffffffffffffffffffffffffffffffffffffff021916908373ffffffffffffffffffffffffffffffffffffffff1602179055508173ffffffffffffffffffffffffffffffffffffffff168173ffffffffffffffffffffffffffffffffffffffff167f8be0079c531659141344cd1fd0a4f28419497f9722a3daafe3b4186f6b6457e060405160405180910390a35050565b828054620001b49062000256565b90600052602060002090601f016020900481019282620001d8576000855562000224565b82601f10620001f357805160ff191683800117855562000224565b8280016001018555821562000224579182015b828111156200022357825182559160200191906001019062000206565b5b50905062000233919062000237565b5090565b5b808211156200025257600081600090555060010162000238565b5090565b600060028204905060018216806200026f57607f821691505b602082108114156200028657620002856200028c565b5b50919050565b7f4e487b7100000000000000000000000000000000000000000000000000000000600052602260045260246000fd5b613b1e80620002cb6000396000f3fe6080604052600436106101395760003560e01c806395d89b41116100ab578063d591221f1161006f578063d591221f1461045b578063e61a70c014610465578063e985e9c5146104a6578063eacabe14146104e3578063f2fde38b14610520578063f779a1931461054957610179565b806395d89b4114610385578063a22cb465146103b0578063a82ba76f146103d9578063b88d4fde146103f5578063c87b56dd1461041e57610179565b806323b872dd116100fd57806323b872dd1461027757806342842e0e146102a05780636352211e146102c957806370a0823114610306578063715018a6146103435780638da5cb5b1461035a57610179565b806301ffc9a71461017e57806306fdde03146101bb578063081812fc146101e6578063095ea7b31461022357806318160ddd1461024c57610179565b36610179577f88a5966d370b9919b20f3e2c13ff65706f196a4e32cc2c12bf57088f88525874333460405161016f929190613356565b60405180910390a1005b600080fd5b34801561018a57600080fd5b506101a560048036038101906101a09190612a2e565b610572565b6040516101b2919061337f565b60405180910390f35b3480156101c757600080fd5b506101d0610654565b6040516101dd919061339a565b60405180910390f35b3480156101f257600080fd5b5061020d60048036038101906102089190612a80565b6106e6565b60405161021a91906132ef565b60405180910390f35b34801561022f57600080fd5b5061024a600480360381019061024591906129a3565b61076b565b005b34801561025857600080fd5b50610261610883565b60405161026e919061363c565b60405180910390f35b34801561028357600080fd5b5061029e60048036038101906102999190612849565b610894565b005b3480156102ac57600080fd5b506102c760048036038101906102c29190612849565b6108f4565b005b3480156102d557600080fd5b506102f060048036038101906102eb9190612a80565b610914565b6040516102fd91906132ef565b60405180910390f35b34801561031257600080fd5b5061032d600480360381019061032891906127e4565b6109c6565b60405161033a919061363c565b60405180910390f35b34801561034f57600080fd5b50610358610a7e565b005b34801561036657600080fd5b5061036f610b06565b60405161037c91906132ef565b60405180910390f35b34801561039157600080fd5b5061039a610b30565b6040516103a7919061339a565b60405180910390f35b3480156103bc57600080fd5b506103d760048036038101906103d29190612913565b610bc2565b005b6103f360048036038101906103ee91906129a3565b610bd8565b005b34801561040157600080fd5b5061041c60048036038101906104179190612898565b611069565b005b34801561042a57600080fd5b5061044560048036038101906104409190612a80565b6110cb565b604051610452919061339a565b60405180910390f35b61046361121d565b005b34801561047157600080fd5b5061048c60048036038101906104879190612a80565b6112fb565b60405161049d959493929190613657565b60405180910390f35b3480156104b257600080fd5b506104cd60048036038101906104c8919061280d565b6113e6565b6040516104da919061337f565b60405180910390f35b3480156104ef57600080fd5b5061050a6004803603810190610505919061294f565b61147a565b604051610517919061363c565b60405180910390f35b34801561052c57600080fd5b50610547600480360381019061054291906127e4565b61161d565b005b34801561055557600080fd5b50610570600480360381019061056b91906129df565b611715565b005b60007f80ac58cd000000000000000000000000000000000000000000000000000000007bffffffffffffffffffffffffffffffffffffffffffffffffffffffff1916827bffffffffffffffffffffffffffffffffffffffffffffffffffffffff1916148061063d57507f5b5e139f000000000000000000000000000000000000000000000000000000007bffffffffffffffffffffffffffffffffffffffffffffffffffffffff1916827bffffffffffffffffffffffffffffffffffffffffffffffffffffffff1916145b8061064d575061064c82611828565b5b9050919050565b60606000805461066390613913565b80601f016020809104026020016040519081016040528092919081815260200182805461068f90613913565b80156106dc5780601f106106b1576101008083540402835291602001916106dc565b820191906000526020600020905b8154815290600101906020018083116106bf57829003601f168201915b5050505050905090565b60006106f182611892565b610730576040517f08c379a00000000000000000000000000000000000000000000000000000000081526004016107279061353c565b60405180910390fd5b6004600083815260200190815260200160002060009054906101000a900473ffffffffffffffffffffffffffffffffffffffff169050919050565b600061077682610914565b90508073ffffffffffffffffffffffffffffffffffffffff168373ffffffffffffffffffffffffffffffffffffffff1614156107e7576040517f08c379a00000000000000000000000000000000000000000000000000000000081526004016107de906135dc565b60405180910390fd5b8073ffffffffffffffffffffffffffffffffffffffff166108066118fe565b73ffffffffffffffffffffffffffffffffffffffff16148061083557506108348161082f6118fe565b6113e6565b5b610874576040517f08c379a000000000000000000000000000000000000000000000000000000000815260040161086b9061347c565b60405180910390fd5b61087e8383611906565b505050565b600061088f60086119bf565b905090565b6108a561089f6118fe565b826119cd565b6108e4576040517f08c379a00000000000000000000000000000000000000000000000000000000081526004016108db9061361c565b60405180910390fd5b6108ef838383611aab565b505050565b61090f83838360405180602001604052806000815250611069565b505050565b6000806002600084815260200190815260200160002060009054906101000a900473ffffffffffffffffffffffffffffffffffffffff169050600073ffffffffffffffffffffffffffffffffffffffff168173ffffffffffffffffffffffffffffffffffffffff1614156109bd576040517f08c379a00000000000000000000000000000000000000000000000000000000081526004016109b4906134bc565b60405180910390fd5b80915050919050565b60008073ffffffffffffffffffffffffffffffffffffffff168273ffffffffffffffffffffffffffffffffffffffff161415610a37576040517f08c379a0000000000000000000000000000000000000000000000000000000008152600401610a2e9061349c565b60405180910390fd5b600360008373ffffffffffffffffffffffffffffffffffffffff1673ffffffffffffffffffffffffffffffffffffffff168152602001908152602001600020549050919050565b610a866118fe565b73ffffffffffffffffffffffffffffffffffffffff16610aa4610b06565b73ffffffffffffffffffffffffffffffffffffffff1614610afa576040517f08c379a0000000000000000000000000000000000000000000000000000000008152600401610af19061355c565b60405180910390fd5b610b046000611d07565b565b6000600760009054906101000a900473ffffffffffffffffffffffffffffffffffffffff16905090565b606060018054610b3f90613913565b80601f0160208091040260200160405190810160405280929190818152602001828054610b6b90613913565b8015610bb85780601f10610b8d57610100808354040283529160200191610bb8565b820191906000526020600020905b815481529060010190602001808311610b9b57829003601f168201915b5050505050905090565b610bd4610bcd6118fe565b8383611dcd565b5050565b610be06118fe565b73ffffffffffffffffffffffffffffffffffffffff16610bfe610b06565b73ffffffffffffffffffffffffffffffffffffffff1614610c54576040517f08c379a0000000000000000000000000000000000000000000000000000000008152600401610c4b9061355c565b60405180910390fd5b60006040518060400160405280601e81526020017f4e6f7420616c6c6f77656420746f20627579207468697320746f6b656e2e0000815250905060006040518060400160405280601e81526020017f4e6f7420616c6c6f77656420746f20627579207468697320746f6b656e320000815250905060006040518060400160405280601e81526020017f4e6f7420616c6c6f77656420746f20627579207468697320746f6b656e330000815250905060006040518060400160405280601e81526020017f4e6f7420616c6c6f77656420746f20627579207468697320746f6b656e3400008152509050610d4585610914565b73ffffffffffffffffffffffffffffffffffffffff168673ffffffffffffffffffffffffffffffffffffffff1614158490610db6576040517f08c379a0000000000000000000000000000000000000000000000000000000008152600401610dad919061339a565b60405180910390fd5b50600115156009600087815260200190815260200160002060040160009054906101000a900460ff161515148390610e24576040517f08c379a0000000000000000000000000000000000000000000000000000000008152600401610e1b919061339a565b60405180910390fd5b5060006009600087815260200190815260200160002060030154905060006009600088815260200190815260200160002060020160009054906101000a900473ffffffffffffffffffffffffffffffffffffffff16905060008173ffffffffffffffffffffffffffffffffffffffff1683604051610ea1906132da565b60006040518083038185875af1925050503d8060008114610ede576040519150601f19603f3d011682016040523d82523d6000602084013e610ee3565b606091505b5050905080610ef184611f3a565b90610f32576040517f08c379a0000000000000000000000000000000000000000000000000000000008152600401610f29919061339a565b60405180910390fd5b50610f3e338a8a611aab565b6000610f4989610914565b90508973ffffffffffffffffffffffffffffffffffffffff168173ffffffffffffffffffffffffffffffffffffffff16148590610fbc576040517f08c379a0000000000000000000000000000000000000000000000000000000008152600401610fb3919061339a565b60405180910390fd5b506000600960008b815260200190815260200160002060040160006101000a81548160ff0219169083151502179055506000600960008b81526020019081526020016000206003018190555089600960008b815260200190815260200160002060020160006101000a81548173ffffffffffffffffffffffffffffffffffffffff021916908373ffffffffffffffffffffffffffffffffffffffff16021790555050505050505050505050565b61107a6110746118fe565b836119cd565b6110b9576040517f08c379a00000000000000000000000000000000000000000000000000000000081526004016110b09061361c565b60405180910390fd5b6110c5848484846120e7565b50505050565b60606110d682611892565b611115576040517f08c379a000000000000000000000000000000000000000000000000000000000815260040161110c9061351c565b60405180910390fd5b600060066000848152602001908152602001600020805461113590613913565b80601f016020809104026020016040519081016040528092919081815260200182805461116190613913565b80156111ae5780601f10611183576101008083540402835291602001916111ae565b820191906000526020600020905b81548152906001019060200180831161119157829003601f168201915b5050505050905060006111bf612143565b90506000815114156111d5578192505050611218565b60008251111561120a5780826040516020016111f29291906132b6565b60405160208183030381529060405292505050611218565b6112138461215a565b925050505b919050565b600061122847611f3a565b90611269576040517f08c379a0000000000000000000000000000000000000000000000000000000008152600401611260919061339a565b60405180910390fd5b506000732d507fb166f6cd004eb32b9883064165bd2c0c95905060008173ffffffffffffffffffffffffffffffffffffffff16670de0b6b3a76400006040516112b1906132da565b60006040518083038185875af1925050503d80600081146112ee576040519150601f19603f3d011682016040523d82523d6000602084013e6112f3565b606091505b505090505050565b600960205280600052604060002060009150905080600001549080600101805461132490613913565b80601f016020809104026020016040519081016040528092919081815260200182805461135090613913565b801561139d5780601f106113725761010080835404028352916020019161139d565b820191906000526020600020905b81548152906001019060200180831161138057829003601f168201915b5050505050908060020160009054906101000a900473ffffffffffffffffffffffffffffffffffffffff16908060030154908060040160009054906101000a900460ff16905085565b6000600560008473ffffffffffffffffffffffffffffffffffffffff1673ffffffffffffffffffffffffffffffffffffffff16815260200190815260200160002060008373ffffffffffffffffffffffffffffffffffffffff1673ffffffffffffffffffffffffffffffffffffffff16815260200190815260200160002060009054906101000a900460ff16905092915050565b60006114846118fe565b73ffffffffffffffffffffffffffffffffffffffff166114a2610b06565b73ffffffffffffffffffffffffffffffffffffffff16146114f8576040517f08c379a00000000000000000000000000000000000000000000000000000000081526004016114ef9061355c565b60405180910390fd5b6115026008612201565b600061150e60086119bf565b905061151a8482612217565b61152481846123e5565b6040518060a001604052808281526020018481526020018573ffffffffffffffffffffffffffffffffffffffff16815260200160008152602001600015158152506009600083815260200190815260200160002060008201518160000155602082015181600101908051906020019061159e929190612608565b5060408201518160020160006101000a81548173ffffffffffffffffffffffffffffffffffffffff021916908373ffffffffffffffffffffffffffffffffffffffff1602179055506060820151816003015560808201518160040160006101000a81548160ff0219169083151502179055509050508091505092915050565b6116256118fe565b73ffffffffffffffffffffffffffffffffffffffff16611643610b06565b73ffffffffffffffffffffffffffffffffffffffff1614611699576040517f08c379a00000000000000000000000000000000000000000000000000000000081526004016116909061355c565b60405180910390fd5b600073ffffffffffffffffffffffffffffffffffffffff168173ffffffffffffffffffffffffffffffffffffffff161415611709576040517f08c379a0000000000000000000000000000000000000000000000000000000008152600401611700906133dc565b60405180910390fd5b61171281611d07565b50565b61171e82610914565b73ffffffffffffffffffffffffffffffffffffffff163373ffffffffffffffffffffffffffffffffffffffff161461178b576040517f08c379a0000000000000000000000000000000000000000000000000000000008152600401611782906135fc565b60405180910390fd5b600081116117ce576040517f08c379a00000000000000000000000000000000000000000000000000000000081526004016117c59061359c565b60405180910390fd5b60016009600084815260200190815260200160002060040160006101000a81548160ff021916908315150217905550806009600084815260200190815260200160002060030181905550611823338484611aab565b505050565b60007f01ffc9a7000000000000000000000000000000000000000000000000000000007bffffffffffffffffffffffffffffffffffffffffffffffffffffffff1916827bffffffffffffffffffffffffffffffffffffffffffffffffffffffff1916149050919050565b60008073ffffffffffffffffffffffffffffffffffffffff166002600084815260200190815260200160002060009054906101000a900473ffffffffffffffffffffffffffffffffffffffff1673ffffffffffffffffffffffffffffffffffffffff1614159050919050565b600033905090565b816004600083815260200190815260200160002060006101000a81548173ffffffffffffffffffffffffffffffffffffffff021916908373ffffffffffffffffffffffffffffffffffffffff160217905550808273ffffffffffffffffffffffffffffffffffffffff1661197983610914565b73ffffffffffffffffffffffffffffffffffffffff167f8c5be1e5ebec7d5bd14f71427d1e84f3dd0314c0f7b2291e5b200ac8c7c3b92560405160405180910390a45050565b600081600001549050919050565b60006119d882611892565b611a17576040517f08c379a0000000000000000000000000000000000000000000000000000000008152600401611a0e9061345c565b60405180910390fd5b6000611a2283610914565b90508073ffffffffffffffffffffffffffffffffffffffff168473ffffffffffffffffffffffffffffffffffffffff161480611a9157508373ffffffffffffffffffffffffffffffffffffffff16611a79846106e6565b73ffffffffffffffffffffffffffffffffffffffff16145b80611aa25750611aa181856113e6565b5b91505092915050565b8273ffffffffffffffffffffffffffffffffffffffff16611acb82610914565b73ffffffffffffffffffffffffffffffffffffffff1614611b21576040517f08c379a0000000000000000000000000000000000000000000000000000000008152600401611b189061357c565b60405180910390fd5b600073ffffffffffffffffffffffffffffffffffffffff168273ffffffffffffffffffffffffffffffffffffffff161415611b91576040517f08c379a0000000000000000000000000000000000000000000000000000000008152600401611b889061341c565b60405180910390fd5b611b9c838383612459565b611ba7600082611906565b6001600360008573ffffffffffffffffffffffffffffffffffffffff1673ffffffffffffffffffffffffffffffffffffffff1681526020019081526020016000206000828254611bf79190613817565b925050819055506001600360008473ffffffffffffffffffffffffffffffffffffffff1673ffffffffffffffffffffffffffffffffffffffff1681526020019081526020016000206000828254611c4e9190613790565b92505081905550816002600083815260200190815260200160002060006101000a81548173ffffffffffffffffffffffffffffffffffffffff021916908373ffffffffffffffffffffffffffffffffffffffff160217905550808273ffffffffffffffffffffffffffffffffffffffff168473ffffffffffffffffffffffffffffffffffffffff167fddf252ad1be2c89b69c2b068fc378daa952ba7f163c4a11628f55a4df523b3ef60405160405180910390a4505050565b6000600760009054906101000a900473ffffffffffffffffffffffffffffffffffffffff16905081600760006101000a81548173ffffffffffffffffffffffffffffffffffffffff021916908373ffffffffffffffffffffffffffffffffffffffff1602179055508173ffffffffffffffffffffffffffffffffffffffff168173ffffffffffffffffffffffffffffffffffffffff167f8be0079c531659141344cd1fd0a4f28419497f9722a3daafe3b4186f6b6457e060405160405180910390a35050565b8173ffffffffffffffffffffffffffffffffffffffff168373ffffffffffffffffffffffffffffffffffffffff161415611e3c576040517f08c379a0000000000000000000000000000000000000000000000000000000008152600401611e339061343c565b60405180910390fd5b80600560008573ffffffffffffffffffffffffffffffffffffffff1673ffffffffffffffffffffffffffffffffffffffff16815260200190815260200160002060008473ffffffffffffffffffffffffffffffffffffffff1673ffffffffffffffffffffffffffffffffffffffff16815260200190815260200160002060006101000a81548160ff0219169083151502179055508173ffffffffffffffffffffffffffffffffffffffff168373ffffffffffffffffffffffffffffffffffffffff167f17307eab39ab6107e8899845ad3d59bd9653f200f220920489ca2b5937696c3183604051611f2d919061337f565b60405180910390a3505050565b60606000821415611f82576040518060400160405280600181526020017f300000000000000000000000000000000000000000000000000000000000000081525090506120e2565b600082905060005b60008214611fb4578080611f9d90613945565b915050600a82611fad91906137e6565b9150611f8a565b60008167ffffffffffffffff811115611ff6577f4e487b7100000000000000000000000000000000000000000000000000000000600052604160045260246000fd5b6040519080825280601f01601f1916602001820160405280156120285781602001600182028036833780820191505090505b5090505b600085146120db576001826120419190613817565b9150600a85612050919061398e565b603061205c9190613790565b60f81b818381518110612098577f4e487b7100000000000000000000000000000000000000000000000000000000600052603260045260246000fd5b60200101907effffffffffffffffffffffffffffffffffffffffffffffffffffffffffffff1916908160001a905350600a856120d491906137e6565b945061202c565b8093505050505b919050565b6120f2848484611aab565b6120fe8484848461245e565b61213d576040517f08c379a0000000000000000000000000000000000000000000000000000000008152600401612134906133bc565b60405180910390fd5b50505050565b606060405180602001604052806000815250905090565b606061216582611892565b6121a4576040517f08c379a000000000000000000000000000000000000000000000000000000000815260040161219b906135bc565b60405180910390fd5b60006121ae612143565b905060008151116121ce57604051806020016040528060008152506121f9565b806121d884611f3a565b6040516020016121e99291906132b6565b6040516020818303038152906040525b915050919050565b6001816000016000828254019250508190555050565b600073ffffffffffffffffffffffffffffffffffffffff168273ffffffffffffffffffffffffffffffffffffffff161415612287576040517f08c379a000000000000000000000000000000000000000000000000000000000815260040161227e906134fc565b60405180910390fd5b61229081611892565b156122d0576040517f08c379a00000000000000000000000000000000000000000000000000000000081526004016122c7906133fc565b60405180910390fd5b6122dc60008383612459565b6001600360008473ffffffffffffffffffffffffffffffffffffffff1673ffffffffffffffffffffffffffffffffffffffff168152602001908152602001600020600082825461232c9190613790565b92505081905550816002600083815260200190815260200160002060006101000a81548173ffffffffffffffffffffffffffffffffffffffff021916908373ffffffffffffffffffffffffffffffffffffffff160217905550808273ffffffffffffffffffffffffffffffffffffffff16600073ffffffffffffffffffffffffffffffffffffffff167fddf252ad1be2c89b69c2b068fc378daa952ba7f163c4a11628f55a4df523b3ef60405160405180910390a45050565b6123ee82611892565b61242d576040517f08c379a0000000000000000000000000000000000000000000000000000000008152600401612424906134dc565b60405180910390fd5b80600660008481526020019081526020016000209080519060200190612454929190612608565b505050565b505050565b600061247f8473ffffffffffffffffffffffffffffffffffffffff166125f5565b156125e8578373ffffffffffffffffffffffffffffffffffffffff1663150b7a026124a86118fe565b8786866040518563ffffffff1660e01b81526004016124ca949392919061330a565b602060405180830381600087803b1580156124e457600080fd5b505af192505050801561251557506040513d601f19601f820116820180604052508101906125129190612a57565b60015b612598573d8060008114612545576040519150601f19603f3d011682016040523d82523d6000602084013e61254a565b606091505b50600081511415612590576040517f08c379a0000000000000000000000000000000000000000000000000000000008152600401612587906133bc565b60405180910390fd5b805181602001fd5b63150b7a0260e01b7bffffffffffffffffffffffffffffffffffffffffffffffffffffffff1916817bffffffffffffffffffffffffffffffffffffffffffffffffffffffff1916149150506125ed565b600190505b949350505050565b600080823b905060008111915050919050565b82805461261490613913565b90600052602060002090601f016020900481019282612636576000855561267d565b82601f1061264f57805160ff191683800117855561267d565b8280016001018555821561267d579182015b8281111561267c578251825591602001919060010190612661565b5b50905061268a919061268e565b5090565b5b808211156126a757600081600090555060010161268f565b5090565b60006126be6126b9846136e2565b6136b1565b9050828152602081018484840111156126d657600080fd5b6126e18482856138d1565b509392505050565b60006126fc6126f784613712565b6136b1565b90508281526020810184848401111561271457600080fd5b61271f8482856138d1565b509392505050565b60008135905061273681613a8c565b92915050565b60008135905061274b81613aa3565b92915050565b60008135905061276081613aba565b92915050565b60008151905061277581613aba565b92915050565b600082601f83011261278c57600080fd5b813561279c8482602086016126ab565b91505092915050565b600082601f8301126127b657600080fd5b81356127c68482602086016126e9565b91505092915050565b6000813590506127de81613ad1565b92915050565b6000602082840312156127f657600080fd5b600061280484828501612727565b91505092915050565b6000806040838503121561282057600080fd5b600061282e85828601612727565b925050602061283f85828601612727565b9150509250929050565b60008060006060848603121561285e57600080fd5b600061286c86828701612727565b935050602061287d86828701612727565b925050604061288e868287016127cf565b9150509250925092565b600080600080608085870312156128ae57600080fd5b60006128bc87828801612727565b94505060206128cd87828801612727565b93505060406128de878288016127cf565b925050606085013567ffffffffffffffff8111156128fb57600080fd5b6129078782880161277b565b91505092959194509250565b6000806040838503121561292657600080fd5b600061293485828601612727565b92505060206129458582860161273c565b9150509250929050565b6000806040838503121561296257600080fd5b600061297085828601612727565b925050602083013567ffffffffffffffff81111561298d57600080fd5b612999858286016127a5565b9150509250929050565b600080604083850312156129b657600080fd5b60006129c485828601612727565b92505060206129d5858286016127cf565b9150509250929050565b6000806000606084860312156129f457600080fd5b6000612a0286828701612727565b9350506020612a13868287016127cf565b9250506040612a24868287016127cf565b9150509250925092565b600060208284031215612a4057600080fd5b6000612a4e84828501612751565b91505092915050565b600060208284031215612a6957600080fd5b6000612a7784828501612766565b91505092915050565b600060208284031215612a9257600080fd5b6000612aa0848285016127cf565b91505092915050565b612ab28161385d565b82525050565b612ac18161384b565b82525050565b612ad08161386f565b82525050565b6000612ae182613742565b612aeb8185613758565b9350612afb8185602086016138e0565b612b0481613a7b565b840191505092915050565b6000612b1a8261374d565b612b248185613774565b9350612b348185602086016138e0565b612b3d81613a7b565b840191505092915050565b6000612b538261374d565b612b5d8185613785565b9350612b6d8185602086016138e0565b80840191505092915050565b6000612b86603283613774565b91507f4552433732313a207472616e7366657220746f206e6f6e20455243373231526560008301527f63656976657220696d706c656d656e74657200000000000000000000000000006020830152604082019050919050565b6000612bec602683613774565b91507f4f776e61626c653a206e6577206f776e657220697320746865207a65726f206160008301527f64647265737300000000000000000000000000000000000000000000000000006020830152604082019050919050565b6000612c52601c83613774565b91507f4552433732313a20746f6b656e20616c7265616479206d696e746564000000006000830152602082019050919050565b6000612c92602483613774565b91507f4552433732313a207472616e7366657220746f20746865207a65726f2061646460008301527f72657373000000000000000000000000000000000000000000000000000000006020830152604082019050919050565b6000612cf8601983613774565b91507f4552433732313a20617070726f766520746f2063616c6c6572000000000000006000830152602082019050919050565b6000612d38602c83613774565b91507f4552433732313a206f70657261746f7220717565727920666f72206e6f6e657860008301527f697374656e7420746f6b656e00000000000000000000000000000000000000006020830152604082019050919050565b6000612d9e603883613774565b91507f4552433732313a20617070726f76652063616c6c6572206973206e6f74206f7760008301527f6e6572206e6f7220617070726f76656420666f7220616c6c00000000000000006020830152604082019050919050565b6000612e04602a83613774565b91507f4552433732313a2062616c616e636520717565727920666f7220746865207a6560008301527f726f2061646472657373000000000000000000000000000000000000000000006020830152604082019050919050565b6000612e6a602983613774565b91507f4552433732313a206f776e657220717565727920666f72206e6f6e657869737460008301527f656e7420746f6b656e00000000000000000000000000000000000000000000006020830152604082019050919050565b6000612ed0602e83613774565b91507f45524337323155524953746f726167653a2055524920736574206f66206e6f6e60008301527f6578697374656e7420746f6b656e0000000000000000000000000000000000006020830152604082019050919050565b6000612f36602083613774565b91507f4552433732313a206d696e7420746f20746865207a65726f20616464726573736000830152602082019050919050565b6000612f76603183613774565b91507f45524337323155524953746f726167653a2055524920717565727920666f722060008301527f6e6f6e6578697374656e7420746f6b656e0000000000000000000000000000006020830152604082019050919050565b6000612fdc602c83613774565b91507f4552433732313a20617070726f76656420717565727920666f72206e6f6e657860008301527f697374656e7420746f6b656e00000000000000000000000000000000000000006020830152604082019050919050565b6000613042602083613774565b91507f4f776e61626c653a2063616c6c6572206973206e6f7420746865206f776e65726000830152602082019050919050565b6000613082602983613774565b91507f4552433732313a207472616e73666572206f6620746f6b656e2074686174206960008301527f73206e6f74206f776e00000000000000000000000000000000000000000000006020830152604082019050919050565b60006130e8600a83613774565b91507f5072696365207a65726f000000000000000000000000000000000000000000006000830152602082019050919050565b6000613128602f83613774565b91507f4552433732314d657461646174613a2055524920717565727920666f72206e6f60008301527f6e6578697374656e7420746f6b656e00000000000000000000000000000000006020830152604082019050919050565b600061318e602183613774565b91507f4552433732313a20617070726f76616c20746f2063757272656e74206f776e6560008301527f72000000000000000000000000000000000000000000000000000000000000006020830152604082019050919050565b60006131f4601783613774565b91507f4e6f74206f776e6572206f66207468697320746f6b656e0000000000000000006000830152602082019050919050565b6000613234600083613769565b9150600082019050919050565b600061324e603183613774565b91507f4552433732313a207472616e736665722063616c6c6572206973206e6f74206f60008301527f776e6572206e6f7220617070726f7665640000000000000000000000000000006020830152604082019050919050565b6132b0816138c7565b82525050565b60006132c28285612b48565b91506132ce8284612b48565b91508190509392505050565b60006132e582613227565b9150819050919050565b60006020820190506133046000830184612ab8565b92915050565b600060808201905061331f6000830187612ab8565b61332c6020830186612ab8565b61333960408301856132a7565b818103606083015261334b8184612ad6565b905095945050505050565b600060408201905061336b6000830185612ab8565b61337860208301846132a7565b9392505050565b60006020820190506133946000830184612ac7565b92915050565b600060208201905081810360008301526133b48184612b0f565b905092915050565b600060208201905081810360008301526133d581612b79565b9050919050565b600060208201905081810360008301526133f581612bdf565b9050919050565b6000602082019050818103600083015261341581612c45565b9050919050565b6000602082019050818103600083015261343581612c85565b9050919050565b6000602082019050818103600083015261345581612ceb565b9050919050565b6000602082019050818103600083015261347581612d2b565b9050919050565b6000602082019050818103600083015261349581612d91565b9050919050565b600060208201905081810360008301526134b581612df7565b9050919050565b600060208201905081810360008301526134d581612e5d565b9050919050565b600060208201905081810360008301526134f581612ec3565b9050919050565b6000602082019050818103600083015261351581612f29565b9050919050565b6000602082019050818103600083015261353581612f69565b9050919050565b6000602082019050818103600083015261355581612fcf565b9050919050565b6000602082019050818103600083015261357581613035565b9050919050565b6000602082019050818103600083015261359581613075565b9050919050565b600060208201905081810360008301526135b5816130db565b9050919050565b600060208201905081810360008301526135d58161311b565b9050919050565b600060208201905081810360008301526135f581613181565b9050919050565b60006020820190508181036000830152613615816131e7565b9050919050565b6000602082019050818103600083015261363581613241565b9050919050565b600060208201905061365160008301846132a7565b92915050565b600060a08201905061366c60008301886132a7565b818103602083015261367e8187612b0f565b905061368d6040830186612aa9565b61369a60608301856132a7565b6136a76080830184612ac7565b9695505050505050565b6000604051905081810181811067ffffffffffffffff821117156136d8576136d7613a4c565b5b8060405250919050565b600067ffffffffffffffff8211156136fd576136fc613a4c565b5b601f19601f8301169050602081019050919050565b600067ffffffffffffffff82111561372d5761372c613a4c565b5b601f19601f8301169050602081019050919050565b600081519050919050565b600081519050919050565b600082825260208201905092915050565b600081905092915050565b600082825260208201905092915050565b600081905092915050565b600061379b826138c7565b91506137a6836138c7565b9250827fffffffffffffffffffffffffffffffffffffffffffffffffffffffffffffffff038211156137db576137da6139bf565b5b828201905092915050565b60006137f1826138c7565b91506137fc836138c7565b92508261380c5761380b6139ee565b5b828204905092915050565b6000613822826138c7565b915061382d836138c7565b9250828210156138405761383f6139bf565b5b828203905092915050565b6000613856826138a7565b9050919050565b6000613868826138a7565b9050919050565b60008115159050919050565b60007fffffffff0000000000000000000000000000000000000000000000000000000082169050919050565b600073ffffffffffffffffffffffffffffffffffffffff82169050919050565b6000819050919050565b82818337600083830152505050565b60005b838110156138fe5780820151818401526020810190506138e3565b8381111561390d576000848401525b50505050565b6000600282049050600182168061392b57607f821691505b6020821081141561393f5761393e613a1d565b5b50919050565b6000613950826138c7565b91507fffffffffffffffffffffffffffffffffffffffffffffffffffffffffffffffff821415613983576139826139bf565b5b600182019050919050565b6000613999826138c7565b91506139a4836138c7565b9250826139b4576139b36139ee565b5b828206905092915050565b7f4e487b7100000000000000000000000000000000000000000000000000000000600052601160045260246000fd5b7f4e487b7100000000000000000000000000000000000000000000000000000000600052601260045260246000fd5b7f4e487b7100000000000000000000000000000000000000000000000000000000600052602260045260246000fd5b7f4e487b7100000000000000000000000000000000000000000000000000000000600052604160045260246000fd5b6000601f19601f8301169050919050565b613a958161384b565b8114613aa057600080fd5b50565b613aac8161386f565b8114613ab757600080fd5b50565b613ac38161387b565b8114613ace57600080fd5b50565b613ada816138c7565b8114613ae557600080fd5b5056fea2646970667358221220e17d4a0d65f80185f525b5da343f585fad723d7e6a1715d0af7f80ef484f375364736f6c63430008000033",
  "linkReferences": {},
  "deployedLinkReferences": {}
}