{
  "_format": "hh-sol-artifact-1",
  "contractName": "RuNFT",
  "sourceName": "contracts/RuNFT.sol",
  "abi": [
    {
      "inputs": [],
      "stateMutability": "nonpayable",
      "type": "constructor"
    },
    {
      "anonymous": false,
      "inputs": [
        {
          "indexed": true,
          "internalType": "address",
          "name": "owner",
          "type": "address"
        },
        {
          "indexed": true,
          "internalType": "address",
          "name": "approved",
          "type": "address"
        },
        {
          "indexed": true,
          "internalType": "uint256",
          "name": "tokenId",
          "type": "uint256"
        }
      ],
      "name": "Approval",
      "type": "event"
    },
    {
      "anonymous": false,
      "inputs": [
        {
          "indexed": true,
          "internalType": "address",
          "name": "owner",
          "type": "address"
        },
        {
          "indexed": true,
          "internalType": "address",
          "name": "operator",
          "type": "address"
        },
        {
          "indexed": false,
          "internalType": "bool",
          "name": "approved",
          "type": "bool"
        }
      ],
      "name": "ApprovalForAll",
      "type": "event"
    },
    {
      "anonymous": false,
      "inputs": [
        {
          "indexed": true,
          "internalType": "address",
          "name": "previousOwner",
          "type": "address"
        },
        {
          "indexed": true,
          "internalType": "address",
          "name": "newOwner",
          "type": "address"
        }
      ],
      "name": "OwnershipTransferred",
      "type": "event"
    },
    {
      "anonymous": false,
      "inputs": [
        {
          "indexed": true,
          "internalType": "address",
          "name": "from",
          "type": "address"
        },
        {
          "indexed": true,
          "internalType": "address",
          "name": "to",
          "type": "address"
        },
        {
          "indexed": true,
          "internalType": "uint256",
          "name": "tokenId",
          "type": "uint256"
        }
      ],
      "name": "Transfer",
      "type": "event"
    },
    {
      "inputs": [
        {
          "internalType": "address",
          "name": "to",
          "type": "address"
        },
        {
          "internalType": "uint256",
          "name": "tokenId",
          "type": "uint256"
        }
      ],
      "name": "approve",
      "outputs": [],
      "stateMutability": "nonpayable",
      "type": "function"
    },
    {
      "inputs": [
        {
          "internalType": "address",
          "name": "owner",
          "type": "address"
        }
      ],
      "name": "balanceOf",
      "outputs": [
        {
          "internalType": "uint256",
          "name": "",
          "type": "uint256"
        }
      ],
      "stateMutability": "view",
      "type": "function"
    },
    {
      "inputs": [
        {
          "internalType": "address",
          "name": "buyer",
          "type": "address"
        },
        {
          "internalType": "uint256",
          "name": "tokenId",
          "type": "uint256"
        }
      ],
      "name": "buyNFT",
      "outputs": [],
      "stateMutability": "nonpayable",
      "type": "function"
    },
    {
      "inputs": [
        {
          "internalType": "uint256",
          "name": "tokenId",
          "type": "uint256"
        }
      ],
      "name": "getApproved",
      "outputs": [
        {
          "internalType": "address",
          "name": "",
          "type": "address"
        }
      ],
      "stateMutability": "view",
      "type": "function"
    },
    {
      "inputs": [
        {
          "internalType": "uint256",
          "name": "",
          "type": "uint256"
        }
      ],
      "name": "idToMarketItem",
      "outputs": [
        {
          "internalType": "uint256",
          "name": "itemId",
          "type": "uint256"
        },
        {
          "internalType": "string",
          "name": "tokenURI",
          "type": "string"
        },
        {
          "internalType": "address payable",
          "name": "owner",
          "type": "address"
        },
        {
          "internalType": "uint256",
          "name": "price",
          "type": "uint256"
        },
        {
          "internalType": "bool",
          "name": "sell",
          "type": "bool"
        }
      ],
      "stateMutability": "view",
      "type": "function"
    },
    {
      "inputs": [
        {
          "internalType": "address",
          "name": "owner",
          "type": "address"
        },
        {
          "internalType": "address",
          "name": "operator",
          "type": "address"
        }
      ],
      "name": "isApprovedForAll",
      "outputs": [
        {
          "internalType": "bool",
          "name": "",
          "type": "bool"
        }
      ],
      "stateMutability": "view",
      "type": "function"
    },
    {
      "inputs": [
        {
          "internalType": "address",
          "name": "recipient",
          "type": "address"
        },
        {
          "internalType": "string",
          "name": "tokenURI",
          "type": "string"
        }
      ],
      "name": "mintNFT",
      "outputs": [
        {
          "internalType": "uint256",
          "name": "",
          "type": "uint256"
        }
      ],
      "stateMutability": "nonpayable",
      "type": "function"
    },
    {
      "inputs": [],
      "name": "name",
      "outputs": [
        {
          "internalType": "string",
          "name": "",
          "type": "string"
        }
      ],
      "stateMutability": "view",
      "type": "function"
    },
    {
      "inputs": [],
      "name": "owner",
      "outputs": [
        {
          "internalType": "address",
          "name": "",
          "type": "address"
        }
      ],
      "stateMutability": "view",
      "type": "function"
    },
    {
      "inputs": [
        {
          "internalType": "uint256",
          "name": "tokenId",
          "type": "uint256"
        }
      ],
      "name": "ownerOf",
      "outputs": [
        {
          "internalType": "address",
          "name": "",
          "type": "address"
        }
      ],
      "stateMutability": "view",
      "type": "function"
    },
    {
      "inputs": [],
      "name": "renounceOwnership",
      "outputs": [],
      "stateMutability": "nonpayable",
      "type": "function"
    },
    {
      "inputs": [
        {
          "internalType": "address",
          "name": "from",
          "type": "address"
        },
        {
          "internalType": "address",
          "name": "to",
          "type": "address"
        },
        {
          "internalType": "uint256",
          "name": "tokenId",
          "type": "uint256"
        }
      ],
      "name": "safeTransferFrom",
      "outputs": [],
      "stateMutability": "nonpayable",
      "type": "function"
    },
    {
      "inputs": [
        {
          "internalType": "address",
          "name": "from",
          "type": "address"
        },
        {
          "internalType": "address",
          "name": "to",
          "type": "address"
        },
        {
          "internalType": "uint256",
          "name": "tokenId",
          "type": "uint256"
        },
        {
          "internalType": "bytes",
          "name": "_data",
          "type": "bytes"
        }
      ],
      "name": "safeTransferFrom",
      "outputs": [],
      "stateMutability": "nonpayable",
      "type": "function"
    },
    {
      "inputs": [
        {
          "internalType": "address",
          "name": "to",
          "type": "address"
        },
        {
          "internalType": "uint256",
          "name": "tokenId",
          "type": "uint256"
        },
        {
          "internalType": "uint256",
          "name": "price",
          "type": "uint256"
        }
      ],
      "name": "sellNFT",
      "outputs": [],
      "stateMutability": "nonpayable",
      "type": "function"
    },
    {
      "inputs": [
        {
          "internalType": "address",
          "name": "operator",
          "type": "address"
        },
        {
          "internalType": "bool",
          "name": "approved",
          "type": "bool"
        }
      ],
      "name": "setApprovalForAll",
      "outputs": [],
      "stateMutability": "nonpayable",
      "type": "function"
    },
    {
      "inputs": [
        {
          "internalType": "bytes4",
          "name": "interfaceId",
          "type": "bytes4"
        }
      ],
      "name": "supportsInterface",
      "outputs": [
        {
          "internalType": "bool",
          "name": "",
          "type": "bool"
        }
      ],
      "stateMutability": "view",
      "type": "function"
    },
    {
      "inputs": [],
      "name": "symbol",
      "outputs": [
        {
          "internalType": "string",
          "name": "",
          "type": "string"
        }
      ],
      "stateMutability": "view",
      "type": "function"
    },
    {
      "inputs": [
        {
          "internalType": "uint256",
          "name": "tokenId",
          "type": "uint256"
        }
      ],
      "name": "tokenURI",
      "outputs": [
        {
          "internalType": "string",
          "name": "",
          "type": "string"
        }
      ],
      "stateMutability": "view",
      "type": "function"
    },
    {
      "inputs": [
        {
          "internalType": "address",
          "name": "from",
          "type": "address"
        },
        {
          "internalType": "address",
          "name": "to",
          "type": "address"
        },
        {
          "internalType": "uint256",
          "name": "tokenId",
          "type": "uint256"
        }
      ],
      "name": "transferFrom",
      "outputs": [],
      "stateMutability": "nonpayable",
      "type": "function"
    },
    {
      "inputs": [
        {
          "internalType": "address",
          "name": "newOwner",
          "type": "address"
        }
      ],
      "name": "transferOwnership",
      "outputs": [],
      "stateMutability": "nonpayable",
      "type": "function"
    }
  ],
  "bytecode": "0x60806040523480156200001157600080fd5b506040518060400160405280600581526020017f52754e46540000000000000000000000000000000000000000000000000000008152506040518060400160405280600381526020017f4e46540000000000000000000000000000000000000000000000000000000000815250816000908051906020019062000096929190620001a6565b508060019080519060200190620000af929190620001a6565b505050620000d2620000c6620000d860201b60201c565b620000e060201b60201c565b620002bb565b600033905090565b6000600760009054906101000a900473ffffffffffffffffffffffffffffffffffffffff16905081600760006101000a81548173ffffffffffffffffffffffffffffffffffffffff021916908373ffffffffffffffffffffffffffffffffffffffff1602179055508173ffffffffffffffffffffffffffffffffffffffff168173ffffffffffffffffffffffffffffffffffffffff167f8be0079c531659141344cd1fd0a4f28419497f9722a3daafe3b4186f6b6457e060405160405180910390a35050565b828054620001b49062000256565b90600052602060002090601f016020900481019282620001d8576000855562000224565b82601f10620001f357805160ff191683800117855562000224565b8280016001018555821562000224579182015b828111156200022357825182559160200191906001019062000206565b5b50905062000233919062000237565b5090565b5b808211156200025257600081600090555060010162000238565b5090565b600060028204905060018216806200026f57607f821691505b602082108114156200028657620002856200028c565b5b50919050565b7f4e487b7100000000000000000000000000000000000000000000000000000000600052602260045260246000fd5b61373080620002cb6000396000f3fe608060405234801561001057600080fd5b506004361061012c5760003560e01c806395d89b41116100ad578063e61a70c011610071578063e61a70c01461032d578063e985e9c514610361578063eacabe1414610391578063f2fde38b146103c1578063f779a193146103dd5761012c565b806395d89b411461028b578063a22cb465146102a9578063a82ba76f146102c5578063b88d4fde146102e1578063c87b56dd146102fd5761012c565b806342842e0e116100f457806342842e0e146101e75780636352211e1461020357806370a0823114610233578063715018a6146102635780638da5cb5b1461026d5761012c565b806301ffc9a71461013157806306fdde0314610161578063081812fc1461017f578063095ea7b3146101af57806323b872dd146101cb575b600080fd5b61014b600480360381019061014691906126a3565b6103f9565b6040516101589190612f9c565b60405180910390f35b6101696104db565b6040516101769190612fb7565b60405180910390f35b610199600480360381019061019491906126f5565b61056d565b6040516101a69190612f35565b60405180910390f35b6101c960048036038101906101c49190612618565b6105f2565b005b6101e560048036038101906101e091906124be565b61070a565b005b61020160048036038101906101fc91906124be565b61076a565b005b61021d600480360381019061021891906126f5565b61078a565b60405161022a9190612f35565b60405180910390f35b61024d60048036038101906102489190612459565b61083c565b60405161025a9190613259565b60405180910390f35b61026b6108f4565b005b61027561097c565b6040516102829190612f35565b60405180910390f35b6102936109a6565b6040516102a09190612fb7565b60405180910390f35b6102c360048036038101906102be9190612588565b610a38565b005b6102df60048036038101906102da9190612618565b610a4e565b005b6102fb60048036038101906102f6919061250d565b610dbc565b005b610317600480360381019061031291906126f5565b610e1e565b6040516103249190612fb7565b60405180910390f35b610347600480360381019061034291906126f5565b610f70565b604051610358959493929190613274565b60405180910390f35b61037b60048036038101906103769190612482565b61105b565b6040516103889190612f9c565b60405180910390f35b6103ab60048036038101906103a691906125c4565b6110ef565b6040516103b89190613259565b60405180910390f35b6103db60048036038101906103d69190612459565b611292565b005b6103f760048036038101906103f29190612654565b61138a565b005b60007f80ac58cd000000000000000000000000000000000000000000000000000000007bffffffffffffffffffffffffffffffffffffffffffffffffffffffff1916827bffffffffffffffffffffffffffffffffffffffffffffffffffffffff191614806104c457507f5b5e139f000000000000000000000000000000000000000000000000000000007bffffffffffffffffffffffffffffffffffffffffffffffffffffffff1916827bffffffffffffffffffffffffffffffffffffffffffffffffffffffff1916145b806104d457506104d38261149d565b5b9050919050565b6060600080546104ea90613525565b80601f016020809104026020016040519081016040528092919081815260200182805461051690613525565b80156105635780601f1061053857610100808354040283529160200191610563565b820191906000526020600020905b81548152906001019060200180831161054657829003601f168201915b5050505050905090565b600061057882611507565b6105b7576040517f08c379a00000000000000000000000000000000000000000000000000000000081526004016105ae90613159565b60405180910390fd5b6004600083815260200190815260200160002060009054906101000a900473ffffffffffffffffffffffffffffffffffffffff169050919050565b60006105fd8261078a565b90508073ffffffffffffffffffffffffffffffffffffffff168373ffffffffffffffffffffffffffffffffffffffff16141561066e576040517f08c379a0000000000000000000000000000000000000000000000000000000008152600401610665906131f9565b60405180910390fd5b8073ffffffffffffffffffffffffffffffffffffffff1661068d611573565b73ffffffffffffffffffffffffffffffffffffffff1614806106bc57506106bb816106b6611573565b61105b565b5b6106fb576040517f08c379a00000000000000000000000000000000000000000000000000000000081526004016106f290613099565b60405180910390fd5b610705838361157b565b505050565b61071b610715611573565b82611634565b61075a576040517f08c379a000000000000000000000000000000000000000000000000000000000815260040161075190613239565b60405180910390fd5b610765838383611712565b505050565b61078583838360405180602001604052806000815250610dbc565b505050565b6000806002600084815260200190815260200160002060009054906101000a900473ffffffffffffffffffffffffffffffffffffffff169050600073ffffffffffffffffffffffffffffffffffffffff168173ffffffffffffffffffffffffffffffffffffffff161415610833576040517f08c379a000000000000000000000000000000000000000000000000000000000815260040161082a906130d9565b60405180910390fd5b80915050919050565b60008073ffffffffffffffffffffffffffffffffffffffff168273ffffffffffffffffffffffffffffffffffffffff1614156108ad576040517f08c379a00000000000000000000000000000000000000000000000000000000081526004016108a4906130b9565b60405180910390fd5b600360008373ffffffffffffffffffffffffffffffffffffffff1673ffffffffffffffffffffffffffffffffffffffff168152602001908152602001600020549050919050565b6108fc611573565b73ffffffffffffffffffffffffffffffffffffffff1661091a61097c565b73ffffffffffffffffffffffffffffffffffffffff1614610970576040517f08c379a000000000000000000000000000000000000000000000000000000000815260040161096790613179565b60405180910390fd5b61097a600061196e565b565b6000600760009054906101000a900473ffffffffffffffffffffffffffffffffffffffff16905090565b6060600180546109b590613525565b80601f01602080910402602001604051908101604052809291908181526020018280546109e190613525565b8015610a2e5780601f10610a0357610100808354040283529160200191610a2e565b820191906000526020600020905b815481529060010190602001808311610a1157829003601f168201915b5050505050905090565b610a4a610a43611573565b8383611a34565b5050565b610a56611573565b73ffffffffffffffffffffffffffffffffffffffff16610a7461097c565b73ffffffffffffffffffffffffffffffffffffffff1614610aca576040517f08c379a0000000000000000000000000000000000000000000000000000000008152600401610ac190613179565b60405180910390fd5b60006040518060400160405280601e81526020017f4e6f7420616c6c6f77656420746f20627579207468697320746f6b656e2e00008152509050610b0d8261078a565b73ffffffffffffffffffffffffffffffffffffffff168373ffffffffffffffffffffffffffffffffffffffff1614158190610b7e576040517f08c379a0000000000000000000000000000000000000000000000000000000008152600401610b759190612fb7565b60405180910390fd5b50600115156009600084815260200190815260200160002060040160009054906101000a900460ff161515148190610bec576040517f08c379a0000000000000000000000000000000000000000000000000000000008152600401610be39190612fb7565b60405180910390fd5b5060006009600084815260200190815260200160002060030154905060006009600085815260200190815260200160002060020160009054906101000a900473ffffffffffffffffffffffffffffffffffffffff1690508073ffffffffffffffffffffffffffffffffffffffff166108fc839081150290604051600060405180830381858888f19350505050158015610c89573d6000803e3d6000fd5b50610c95338686611712565b6000610ca08561078a565b90508573ffffffffffffffffffffffffffffffffffffffff168173ffffffffffffffffffffffffffffffffffffffff16148490610d13576040517f08c379a0000000000000000000000000000000000000000000000000000000008152600401610d0a9190612fb7565b60405180910390fd5b5060006009600087815260200190815260200160002060040160006101000a81548160ff02191690831515021790555060006009600087815260200190815260200160002060030181905550856009600087815260200190815260200160002060020160006101000a81548173ffffffffffffffffffffffffffffffffffffffff021916908373ffffffffffffffffffffffffffffffffffffffff160217905550505050505050565b610dcd610dc7611573565b83611634565b610e0c576040517f08c379a0000000000000000000000000000000000000000000000000000000008152600401610e0390613239565b60405180910390fd5b610e1884848484611ba1565b50505050565b6060610e2982611507565b610e68576040517f08c379a0000000000000000000000000000000000000000000000000000000008152600401610e5f90613139565b60405180910390fd5b6000600660008481526020019081526020016000208054610e8890613525565b80601f0160208091040260200160405190810160405280929190818152602001828054610eb490613525565b8015610f015780601f10610ed657610100808354040283529160200191610f01565b820191906000526020600020905b815481529060010190602001808311610ee457829003601f168201915b505050505090506000610f12611bfd565b9050600081511415610f28578192505050610f6b565b600082511115610f5d578082604051602001610f45929190612f11565b60405160208183030381529060405292505050610f6b565b610f6684611c14565b925050505b919050565b6009602052806000526040600020600091509050806000015490806001018054610f9990613525565b80601f0160208091040260200160405190810160405280929190818152602001828054610fc590613525565b80156110125780601f10610fe757610100808354040283529160200191611012565b820191906000526020600020905b815481529060010190602001808311610ff557829003601f168201915b5050505050908060020160009054906101000a900473ffffffffffffffffffffffffffffffffffffffff16908060030154908060040160009054906101000a900460ff16905085565b6000600560008473ffffffffffffffffffffffffffffffffffffffff1673ffffffffffffffffffffffffffffffffffffffff16815260200190815260200160002060008373ffffffffffffffffffffffffffffffffffffffff1673ffffffffffffffffffffffffffffffffffffffff16815260200190815260200160002060009054906101000a900460ff16905092915050565b60006110f9611573565b73ffffffffffffffffffffffffffffffffffffffff1661111761097c565b73ffffffffffffffffffffffffffffffffffffffff161461116d576040517f08c379a000000000000000000000000000000000000000000000000000000000815260040161116490613179565b60405180910390fd5b6111776008611cbb565b60006111836008611cd1565b905061118f8482611cdf565b6111998184611ead565b6040518060a001604052808281526020018481526020018573ffffffffffffffffffffffffffffffffffffffff16815260200160008152602001600015158152506009600083815260200190815260200160002060008201518160000155602082015181600101908051906020019061121392919061227d565b5060408201518160020160006101000a81548173ffffffffffffffffffffffffffffffffffffffff021916908373ffffffffffffffffffffffffffffffffffffffff1602179055506060820151816003015560808201518160040160006101000a81548160ff0219169083151502179055509050508091505092915050565b61129a611573565b73ffffffffffffffffffffffffffffffffffffffff166112b861097c565b73ffffffffffffffffffffffffffffffffffffffff161461130e576040517f08c379a000000000000000000000000000000000000000000000000000000000815260040161130590613179565b60405180910390fd5b600073ffffffffffffffffffffffffffffffffffffffff168173ffffffffffffffffffffffffffffffffffffffff16141561137e576040517f08c379a000000000000000000000000000000000000000000000000000000000815260040161137590612ff9565b60405180910390fd5b6113878161196e565b50565b6113938261078a565b73ffffffffffffffffffffffffffffffffffffffff163373ffffffffffffffffffffffffffffffffffffffff1614611400576040517f08c379a00000000000000000000000000000000000000000000000000000000081526004016113f790613219565b60405180910390fd5b60008111611443576040517f08c379a000000000000000000000000000000000000000000000000000000000815260040161143a906131b9565b60405180910390fd5b60016009600084815260200190815260200160002060040160006101000a81548160ff021916908315150217905550806009600084815260200190815260200160002060030181905550611498338484611712565b505050565b60007f01ffc9a7000000000000000000000000000000000000000000000000000000007bffffffffffffffffffffffffffffffffffffffffffffffffffffffff1916827bffffffffffffffffffffffffffffffffffffffffffffffffffffffff1916149050919050565b60008073ffffffffffffffffffffffffffffffffffffffff166002600084815260200190815260200160002060009054906101000a900473ffffffffffffffffffffffffffffffffffffffff1673ffffffffffffffffffffffffffffffffffffffff1614159050919050565b600033905090565b816004600083815260200190815260200160002060006101000a81548173ffffffffffffffffffffffffffffffffffffffff021916908373ffffffffffffffffffffffffffffffffffffffff160217905550808273ffffffffffffffffffffffffffffffffffffffff166115ee8361078a565b73ffffffffffffffffffffffffffffffffffffffff167f8c5be1e5ebec7d5bd14f71427d1e84f3dd0314c0f7b2291e5b200ac8c7c3b92560405160405180910390a45050565b600061163f82611507565b61167e576040517f08c379a000000000000000000000000000000000000000000000000000000000815260040161167590613079565b60405180910390fd5b60006116898361078a565b90508073ffffffffffffffffffffffffffffffffffffffff168473ffffffffffffffffffffffffffffffffffffffff1614806116f857508373ffffffffffffffffffffffffffffffffffffffff166116e08461056d565b73ffffffffffffffffffffffffffffffffffffffff16145b806117095750611708818561105b565b5b91505092915050565b8273ffffffffffffffffffffffffffffffffffffffff166117328261078a565b73ffffffffffffffffffffffffffffffffffffffff1614611788576040517f08c379a000000000000000000000000000000000000000000000000000000000815260040161177f90613199565b60405180910390fd5b600073ffffffffffffffffffffffffffffffffffffffff168273ffffffffffffffffffffffffffffffffffffffff1614156117f8576040517f08c379a00000000000000000000000000000000000000000000000000000000081526004016117ef90613039565b60405180910390fd5b611803838383611f21565b61180e60008261157b565b6001600360008573ffffffffffffffffffffffffffffffffffffffff1673ffffffffffffffffffffffffffffffffffffffff168152602001908152602001600020600082825461185e9190613429565b925050819055506001600360008473ffffffffffffffffffffffffffffffffffffffff1673ffffffffffffffffffffffffffffffffffffffff16815260200190815260200160002060008282546118b591906133a2565b92505081905550816002600083815260200190815260200160002060006101000a81548173ffffffffffffffffffffffffffffffffffffffff021916908373ffffffffffffffffffffffffffffffffffffffff160217905550808273ffffffffffffffffffffffffffffffffffffffff168473ffffffffffffffffffffffffffffffffffffffff167fddf252ad1be2c89b69c2b068fc378daa952ba7f163c4a11628f55a4df523b3ef60405160405180910390a4505050565b6000600760009054906101000a900473ffffffffffffffffffffffffffffffffffffffff16905081600760006101000a81548173ffffffffffffffffffffffffffffffffffffffff021916908373ffffffffffffffffffffffffffffffffffffffff1602179055508173ffffffffffffffffffffffffffffffffffffffff168173ffffffffffffffffffffffffffffffffffffffff167f8be0079c531659141344cd1fd0a4f28419497f9722a3daafe3b4186f6b6457e060405160405180910390a35050565b8173ffffffffffffffffffffffffffffffffffffffff168373ffffffffffffffffffffffffffffffffffffffff161415611aa3576040517f08c379a0000000000000000000000000000000000000000000000000000000008152600401611a9a90613059565b60405180910390fd5b80600560008573ffffffffffffffffffffffffffffffffffffffff1673ffffffffffffffffffffffffffffffffffffffff16815260200190815260200160002060008473ffffffffffffffffffffffffffffffffffffffff1673ffffffffffffffffffffffffffffffffffffffff16815260200190815260200160002060006101000a81548160ff0219169083151502179055508173ffffffffffffffffffffffffffffffffffffffff168373ffffffffffffffffffffffffffffffffffffffff167f17307eab39ab6107e8899845ad3d59bd9653f200f220920489ca2b5937696c3183604051611b949190612f9c565b60405180910390a3505050565b611bac848484611712565b611bb884848484611f26565b611bf7576040517f08c379a0000000000000000000000000000000000000000000000000000000008152600401611bee90612fd9565b60405180910390fd5b50505050565b606060405180602001604052806000815250905090565b6060611c1f82611507565b611c5e576040517f08c379a0000000000000000000000000000000000000000000000000000000008152600401611c55906131d9565b60405180910390fd5b6000611c68611bfd565b90506000815111611c885760405180602001604052806000815250611cb3565b80611c92846120bd565b604051602001611ca3929190612f11565b6040516020818303038152906040525b915050919050565b6001816000016000828254019250508190555050565b600081600001549050919050565b600073ffffffffffffffffffffffffffffffffffffffff168273ffffffffffffffffffffffffffffffffffffffff161415611d4f576040517f08c379a0000000000000000000000000000000000000000000000000000000008152600401611d4690613119565b60405180910390fd5b611d5881611507565b15611d98576040517f08c379a0000000000000000000000000000000000000000000000000000000008152600401611d8f90613019565b60405180910390fd5b611da460008383611f21565b6001600360008473ffffffffffffffffffffffffffffffffffffffff1673ffffffffffffffffffffffffffffffffffffffff1681526020019081526020016000206000828254611df491906133a2565b92505081905550816002600083815260200190815260200160002060006101000a81548173ffffffffffffffffffffffffffffffffffffffff021916908373ffffffffffffffffffffffffffffffffffffffff160217905550808273ffffffffffffffffffffffffffffffffffffffff16600073ffffffffffffffffffffffffffffffffffffffff167fddf252ad1be2c89b69c2b068fc378daa952ba7f163c4a11628f55a4df523b3ef60405160405180910390a45050565b611eb682611507565b611ef5576040517f08c379a0000000000000000000000000000000000000000000000000000000008152600401611eec906130f9565b60405180910390fd5b80600660008481526020019081526020016000209080519060200190611f1c92919061227d565b505050565b505050565b6000611f478473ffffffffffffffffffffffffffffffffffffffff1661226a565b156120b0578373ffffffffffffffffffffffffffffffffffffffff1663150b7a02611f70611573565b8786866040518563ffffffff1660e01b8152600401611f929493929190612f50565b602060405180830381600087803b158015611fac57600080fd5b505af1925050508015611fdd57506040513d601f19601f82011682018060405250810190611fda91906126cc565b60015b612060573d806000811461200d576040519150601f19603f3d011682016040523d82523d6000602084013e612012565b606091505b50600081511415612058576040517f08c379a000000000000000000000000000000000000000000000000000000000815260040161204f90612fd9565b60405180910390fd5b805181602001fd5b63150b7a0260e01b7bffffffffffffffffffffffffffffffffffffffffffffffffffffffff1916817bffffffffffffffffffffffffffffffffffffffffffffffffffffffff1916149150506120b5565b600190505b949350505050565b60606000821415612105576040518060400160405280600181526020017f30000000000000000000000000000000000000000000000000000000000000008152509050612265565b600082905060005b6000821461213757808061212090613557565b915050600a8261213091906133f8565b915061210d565b60008167ffffffffffffffff811115612179577f4e487b7100000000000000000000000000000000000000000000000000000000600052604160045260246000fd5b6040519080825280601f01601f1916602001820160405280156121ab5781602001600182028036833780820191505090505b5090505b6000851461225e576001826121c49190613429565b9150600a856121d391906135a0565b60306121df91906133a2565b60f81b81838151811061221b577f4e487b7100000000000000000000000000000000000000000000000000000000600052603260045260246000fd5b60200101907effffffffffffffffffffffffffffffffffffffffffffffffffffffffffffff1916908160001a905350600a8561225791906133f8565b94506121af565b8093505050505b919050565b600080823b905060008111915050919050565b82805461228990613525565b90600052602060002090601f0160209004810192826122ab57600085556122f2565b82601f106122c457805160ff19168380011785556122f2565b828001600101855582156122f2579182015b828111156122f15782518255916020019190600101906122d6565b5b5090506122ff9190612303565b5090565b5b8082111561231c576000816000905550600101612304565b5090565b600061233361232e846132ff565b6132ce565b90508281526020810184848401111561234b57600080fd5b6123568482856134e3565b509392505050565b600061237161236c8461332f565b6132ce565b90508281526020810184848401111561238957600080fd5b6123948482856134e3565b509392505050565b6000813590506123ab8161369e565b92915050565b6000813590506123c0816136b5565b92915050565b6000813590506123d5816136cc565b92915050565b6000815190506123ea816136cc565b92915050565b600082601f83011261240157600080fd5b8135612411848260208601612320565b91505092915050565b600082601f83011261242b57600080fd5b813561243b84826020860161235e565b91505092915050565b600081359050612453816136e3565b92915050565b60006020828403121561246b57600080fd5b60006124798482850161239c565b91505092915050565b6000806040838503121561249557600080fd5b60006124a38582860161239c565b92505060206124b48582860161239c565b9150509250929050565b6000806000606084860312156124d357600080fd5b60006124e18682870161239c565b93505060206124f28682870161239c565b925050604061250386828701612444565b9150509250925092565b6000806000806080858703121561252357600080fd5b60006125318782880161239c565b94505060206125428782880161239c565b935050604061255387828801612444565b925050606085013567ffffffffffffffff81111561257057600080fd5b61257c878288016123f0565b91505092959194509250565b6000806040838503121561259b57600080fd5b60006125a98582860161239c565b92505060206125ba858286016123b1565b9150509250929050565b600080604083850312156125d757600080fd5b60006125e58582860161239c565b925050602083013567ffffffffffffffff81111561260257600080fd5b61260e8582860161241a565b9150509250929050565b6000806040838503121561262b57600080fd5b60006126398582860161239c565b925050602061264a85828601612444565b9150509250929050565b60008060006060848603121561266957600080fd5b60006126778682870161239c565b935050602061268886828701612444565b925050604061269986828701612444565b9150509250925092565b6000602082840312156126b557600080fd5b60006126c3848285016123c6565b91505092915050565b6000602082840312156126de57600080fd5b60006126ec848285016123db565b91505092915050565b60006020828403121561270757600080fd5b600061271584828501612444565b91505092915050565b6127278161346f565b82525050565b6127368161345d565b82525050565b61274581613481565b82525050565b60006127568261335f565b6127608185613375565b93506127708185602086016134f2565b6127798161368d565b840191505092915050565b600061278f8261336a565b6127998185613386565b93506127a98185602086016134f2565b6127b28161368d565b840191505092915050565b60006127c88261336a565b6127d28185613397565b93506127e28185602086016134f2565b80840191505092915050565b60006127fb603283613386565b91507f4552433732313a207472616e7366657220746f206e6f6e20455243373231526560008301527f63656976657220696d706c656d656e74657200000000000000000000000000006020830152604082019050919050565b6000612861602683613386565b91507f4f776e61626c653a206e6577206f776e657220697320746865207a65726f206160008301527f64647265737300000000000000000000000000000000000000000000000000006020830152604082019050919050565b60006128c7601c83613386565b91507f4552433732313a20746f6b656e20616c7265616479206d696e746564000000006000830152602082019050919050565b6000612907602483613386565b91507f4552433732313a207472616e7366657220746f20746865207a65726f2061646460008301527f72657373000000000000000000000000000000000000000000000000000000006020830152604082019050919050565b600061296d601983613386565b91507f4552433732313a20617070726f766520746f2063616c6c6572000000000000006000830152602082019050919050565b60006129ad602c83613386565b91507f4552433732313a206f70657261746f7220717565727920666f72206e6f6e657860008301527f697374656e7420746f6b656e00000000000000000000000000000000000000006020830152604082019050919050565b6000612a13603883613386565b91507f4552433732313a20617070726f76652063616c6c6572206973206e6f74206f7760008301527f6e6572206e6f7220617070726f76656420666f7220616c6c00000000000000006020830152604082019050919050565b6000612a79602a83613386565b91507f4552433732313a2062616c616e636520717565727920666f7220746865207a6560008301527f726f2061646472657373000000000000000000000000000000000000000000006020830152604082019050919050565b6000612adf602983613386565b91507f4552433732313a206f776e657220717565727920666f72206e6f6e657869737460008301527f656e7420746f6b656e00000000000000000000000000000000000000000000006020830152604082019050919050565b6000612b45602e83613386565b91507f45524337323155524953746f726167653a2055524920736574206f66206e6f6e60008301527f6578697374656e7420746f6b656e0000000000000000000000000000000000006020830152604082019050919050565b6000612bab602083613386565b91507f4552433732313a206d696e7420746f20746865207a65726f20616464726573736000830152602082019050919050565b6000612beb603183613386565b91507f45524337323155524953746f726167653a2055524920717565727920666f722060008301527f6e6f6e6578697374656e7420746f6b656e0000000000000000000000000000006020830152604082019050919050565b6000612c51602c83613386565b91507f4552433732313a20617070726f76656420717565727920666f72206e6f6e657860008301527f697374656e7420746f6b656e00000000000000000000000000000000000000006020830152604082019050919050565b6000612cb7602083613386565b91507f4f776e61626c653a2063616c6c6572206973206e6f7420746865206f776e65726000830152602082019050919050565b6000612cf7602983613386565b91507f4552433732313a207472616e73666572206f6620746f6b656e2074686174206960008301527f73206e6f74206f776e00000000000000000000000000000000000000000000006020830152604082019050919050565b6000612d5d600a83613386565b91507f5072696365207a65726f000000000000000000000000000000000000000000006000830152602082019050919050565b6000612d9d602f83613386565b91507f4552433732314d657461646174613a2055524920717565727920666f72206e6f60008301527f6e6578697374656e7420746f6b656e00000000000000000000000000000000006020830152604082019050919050565b6000612e03602183613386565b91507f4552433732313a20617070726f76616c20746f2063757272656e74206f776e6560008301527f72000000000000000000000000000000000000000000000000000000000000006020830152604082019050919050565b6000612e69601783613386565b91507f4e6f74206f776e6572206f66207468697320746f6b656e0000000000000000006000830152602082019050919050565b6000612ea9603183613386565b91507f4552433732313a207472616e736665722063616c6c6572206973206e6f74206f60008301527f776e6572206e6f7220617070726f7665640000000000000000000000000000006020830152604082019050919050565b612f0b816134d9565b82525050565b6000612f1d82856127bd565b9150612f2982846127bd565b91508190509392505050565b6000602082019050612f4a600083018461272d565b92915050565b6000608082019050612f65600083018761272d565b612f72602083018661272d565b612f7f6040830185612f02565b8181036060830152612f91818461274b565b905095945050505050565b6000602082019050612fb1600083018461273c565b92915050565b60006020820190508181036000830152612fd18184612784565b905092915050565b60006020820190508181036000830152612ff2816127ee565b9050919050565b6000602082019050818103600083015261301281612854565b9050919050565b60006020820190508181036000830152613032816128ba565b9050919050565b60006020820190508181036000830152613052816128fa565b9050919050565b6000602082019050818103600083015261307281612960565b9050919050565b60006020820190508181036000830152613092816129a0565b9050919050565b600060208201905081810360008301526130b281612a06565b9050919050565b600060208201905081810360008301526130d281612a6c565b9050919050565b600060208201905081810360008301526130f281612ad2565b9050919050565b6000602082019050818103600083015261311281612b38565b9050919050565b6000602082019050818103600083015261313281612b9e565b9050919050565b6000602082019050818103600083015261315281612bde565b9050919050565b6000602082019050818103600083015261317281612c44565b9050919050565b6000602082019050818103600083015261319281612caa565b9050919050565b600060208201905081810360008301526131b281612cea565b9050919050565b600060208201905081810360008301526131d281612d50565b9050919050565b600060208201905081810360008301526131f281612d90565b9050919050565b6000602082019050818103600083015261321281612df6565b9050919050565b6000602082019050818103600083015261323281612e5c565b9050919050565b6000602082019050818103600083015261325281612e9c565b9050919050565b600060208201905061326e6000830184612f02565b92915050565b600060a0820190506132896000830188612f02565b818103602083015261329b8187612784565b90506132aa604083018661271e565b6132b76060830185612f02565b6132c4608083018461273c565b9695505050505050565b6000604051905081810181811067ffffffffffffffff821117156132f5576132f461365e565b5b8060405250919050565b600067ffffffffffffffff82111561331a5761331961365e565b5b601f19601f8301169050602081019050919050565b600067ffffffffffffffff82111561334a5761334961365e565b5b601f19601f8301169050602081019050919050565b600081519050919050565b600081519050919050565b600082825260208201905092915050565b600082825260208201905092915050565b600081905092915050565b60006133ad826134d9565b91506133b8836134d9565b9250827fffffffffffffffffffffffffffffffffffffffffffffffffffffffffffffffff038211156133ed576133ec6135d1565b5b828201905092915050565b6000613403826134d9565b915061340e836134d9565b92508261341e5761341d613600565b5b828204905092915050565b6000613434826134d9565b915061343f836134d9565b925082821015613452576134516135d1565b5b828203905092915050565b6000613468826134b9565b9050919050565b600061347a826134b9565b9050919050565b60008115159050919050565b60007fffffffff0000000000000000000000000000000000000000000000000000000082169050919050565b600073ffffffffffffffffffffffffffffffffffffffff82169050919050565b6000819050919050565b82818337600083830152505050565b60005b838110156135105780820151818401526020810190506134f5565b8381111561351f576000848401525b50505050565b6000600282049050600182168061353d57607f821691505b602082108114156135515761355061362f565b5b50919050565b6000613562826134d9565b91507fffffffffffffffffffffffffffffffffffffffffffffffffffffffffffffffff821415613595576135946135d1565b5b600182019050919050565b60006135ab826134d9565b91506135b6836134d9565b9250826135c6576135c5613600565b5b828206905092915050565b7f4e487b7100000000000000000000000000000000000000000000000000000000600052601160045260246000fd5b7f4e487b7100000000000000000000000000000000000000000000000000000000600052601260045260246000fd5b7f4e487b7100000000000000000000000000000000000000000000000000000000600052602260045260246000fd5b7f4e487b7100000000000000000000000000000000000000000000000000000000600052604160045260246000fd5b6000601f19601f8301169050919050565b6136a78161345d565b81146136b257600080fd5b50565b6136be81613481565b81146136c957600080fd5b50565b6136d58161348d565b81146136e057600080fd5b50565b6136ec816134d9565b81146136f757600080fd5b5056fea264697066735822122068cc27a3ee03bee094ce8e84305f9180b3b305a6d4b30e136c008151a9d7e3a464736f6c63430008000033",
  "linkReferences": {},
  "deployedLinkReferences": {}
}