{
  "_format": "hh-sol-artifact-1",
  "contractName": "RuNFTMarket",
  "sourceName": "contracts/RuNFTMarket.sol",
  "abi": [
    {
      "inputs": [],
      "stateMutability": "nonpayable",
      "type": "constructor"
    },
    {
      "anonymous": false,
      "inputs": [
        {
          "indexed": true,
          "internalType": "uint256",
          "name": "itemId",
          "type": "uint256"
        },
        {
          "indexed": true,
          "internalType": "address",
          "name": "nftContract",
          "type": "address"
        },
        {
          "indexed": true,
          "internalType": "uint256",
          "name": "tokenId",
          "type": "uint256"
        },
        {
          "indexed": false,
          "internalType": "address",
          "name": "seller",
          "type": "address"
        },
        {
          "indexed": false,
          "internalType": "address",
          "name": "owner",
          "type": "address"
        },
        {
          "indexed": false,
          "internalType": "uint256",
          "name": "price",
          "type": "uint256"
        },
        {
          "indexed": false,
          "internalType": "bool",
          "name": "sold",
          "type": "bool"
        }
      ],
      "name": "MarketItemCreated",
      "type": "event"
    },
    {
      "inputs": [
        {
          "internalType": "address",
          "name": "nftContract",
          "type": "address"
        },
        {
          "internalType": "uint256",
          "name": "tokenId",
          "type": "uint256"
        },
        {
          "internalType": "uint256",
          "name": "price",
          "type": "uint256"
        }
      ],
      "name": "createMarketItem",
      "outputs": [],
      "stateMutability": "payable",
      "type": "function"
    },
    {
      "inputs": [
        {
          "internalType": "address",
          "name": "nftContract",
          "type": "address"
        },
        {
          "internalType": "uint256",
          "name": "itemId",
          "type": "uint256"
        }
      ],
      "name": "createMarketSale",
      "outputs": [],
      "stateMutability": "payable",
      "type": "function"
    },
    {
      "inputs": [],
      "name": "fetchItemsCreated",
      "outputs": [
        {
          "components": [
            {
              "internalType": "uint256",
              "name": "itemId",
              "type": "uint256"
            },
            {
              "internalType": "address",
              "name": "nftContract",
              "type": "address"
            },
            {
              "internalType": "uint256",
              "name": "tokenId",
              "type": "uint256"
            },
            {
              "internalType": "address payable",
              "name": "seller",
              "type": "address"
            },
            {
              "internalType": "address payable",
              "name": "owner",
              "type": "address"
            },
            {
              "internalType": "uint256",
              "name": "price",
              "type": "uint256"
            },
            {
              "internalType": "bool",
              "name": "sold",
              "type": "bool"
            }
          ],
          "internalType": "struct RuNFTMarket.MarketItem[]",
          "name": "",
          "type": "tuple[]"
        }
      ],
      "stateMutability": "view",
      "type": "function"
    },
    {
      "inputs": [],
      "name": "fetchMarketItems",
      "outputs": [
        {
          "components": [
            {
              "internalType": "uint256",
              "name": "itemId",
              "type": "uint256"
            },
            {
              "internalType": "address",
              "name": "nftContract",
              "type": "address"
            },
            {
              "internalType": "uint256",
              "name": "tokenId",
              "type": "uint256"
            },
            {
              "internalType": "address payable",
              "name": "seller",
              "type": "address"
            },
            {
              "internalType": "address payable",
              "name": "owner",
              "type": "address"
            },
            {
              "internalType": "uint256",
              "name": "price",
              "type": "uint256"
            },
            {
              "internalType": "bool",
              "name": "sold",
              "type": "bool"
            }
          ],
          "internalType": "struct RuNFTMarket.MarketItem[]",
          "name": "",
          "type": "tuple[]"
        }
      ],
      "stateMutability": "view",
      "type": "function"
    },
    {
      "inputs": [],
      "name": "fetchMyNFTs",
      "outputs": [
        {
          "components": [
            {
              "internalType": "uint256",
              "name": "itemId",
              "type": "uint256"
            },
            {
              "internalType": "address",
              "name": "nftContract",
              "type": "address"
            },
            {
              "internalType": "uint256",
              "name": "tokenId",
              "type": "uint256"
            },
            {
              "internalType": "address payable",
              "name": "seller",
              "type": "address"
            },
            {
              "internalType": "address payable",
              "name": "owner",
              "type": "address"
            },
            {
              "internalType": "uint256",
              "name": "price",
              "type": "uint256"
            },
            {
              "internalType": "bool",
              "name": "sold",
              "type": "bool"
            }
          ],
          "internalType": "struct RuNFTMarket.MarketItem[]",
          "name": "",
          "type": "tuple[]"
        }
      ],
      "stateMutability": "view",
      "type": "function"
    },
    {
      "inputs": [],
      "name": "getListingPrice",
      "outputs": [
        {
          "internalType": "uint256",
          "name": "",
          "type": "uint256"
        }
      ],
      "stateMutability": "view",
      "type": "function"
    },
    {
      "inputs": [
        {
          "internalType": "uint256",
          "name": "_price",
          "type": "uint256"
        }
      ],
      "name": "setListingPrice",
      "outputs": [
        {
          "internalType": "uint256",
          "name": "",
          "type": "uint256"
        }
      ],
      "stateMutability": "nonpayable",
      "type": "function"
    }
  ],
  "bytecode": "0x60806040526658d15e1762800060045534801561001b57600080fd5b50600160008190555033600360006101000a81548173ffffffffffffffffffffffffffffffffffffffff021916908373ffffffffffffffffffffffffffffffffffffffff160217905550611a10806100746000396000f3fe6080604052600436106100705760003560e01c806358eb2df51161004e57806358eb2df5146100f65780637c726b6914610112578063c23b139e1461014f578063f064c32e1461016b57610070565b80630f08efe01461007557806312e85585146100a0578063202e3740146100cb575b600080fd5b34801561008157600080fd5b5061008a610196565b6040516100979190611749565b60405180910390f35b3480156100ac57600080fd5b506100b56104c2565b6040516100c291906117eb565b60405180910390f35b3480156100d757600080fd5b506100e06104cc565b6040516100ed9190611749565b60405180910390f35b610110600480360381019061010b919061139c565b61087c565b005b34801561011e57600080fd5b50610139600480360381019061013491906113eb565b610be0565b60405161014691906117eb565b60405180910390f35b61016960048036038101906101649190611360565b610c28565b005b34801561017757600080fd5b50610180610ee1565b60405161018d9190611749565b60405180910390f35b606060006101a46001611291565b905060006101b26002611291565b6101bc6001611291565b6101c691906118a6565b90506000808267ffffffffffffffff81111561020b577f4e487b7100000000000000000000000000000000000000000000000000000000600052604160045260246000fd5b60405190808252806020026020018201604052801561024457816020015b6102316112b5565b8152602001906001900390816102295790505b50905060005b848110156104b757600073ffffffffffffffffffffffffffffffffffffffff166005600060018461027b9190611850565b815260200190815260200160002060040160009054906101000a900473ffffffffffffffffffffffffffffffffffffffff1673ffffffffffffffffffffffffffffffffffffffff1614156104a4576000600560006001846102dc9190611850565b81526020019081526020016000206000015490506000600560008381526020019081526020016000209050806040518060e0016040529081600082015481526020016001820160009054906101000a900473ffffffffffffffffffffffffffffffffffffffff1673ffffffffffffffffffffffffffffffffffffffff1673ffffffffffffffffffffffffffffffffffffffff168152602001600282015481526020016003820160009054906101000a900473ffffffffffffffffffffffffffffffffffffffff1673ffffffffffffffffffffffffffffffffffffffff1673ffffffffffffffffffffffffffffffffffffffff1681526020016004820160009054906101000a900473ffffffffffffffffffffffffffffffffffffffff1673ffffffffffffffffffffffffffffffffffffffff1673ffffffffffffffffffffffffffffffffffffffff168152602001600582015481526020016006820160009054906101000a900460ff161515151581525050848681518110610487577f4e487b7100000000000000000000000000000000000000000000000000000000600052603260045260246000fd5b602002602001018190525060018561049f9190611850565b945050505b80806104af90611934565b91505061024a565b508094505050505090565b6000600454905090565b606060006104da6001611291565b905060008060005b83811015610583573373ffffffffffffffffffffffffffffffffffffffff16600560006001846105129190611850565b815260200190815260200160002060040160009054906101000a900473ffffffffffffffffffffffffffffffffffffffff1673ffffffffffffffffffffffffffffffffffffffff1614156105705760018361056d9190611850565b92505b808061057b90611934565b9150506104e2565b5060008267ffffffffffffffff8111156105c6577f4e487b7100000000000000000000000000000000000000000000000000000000600052604160045260246000fd5b6040519080825280602002602001820160405280156105ff57816020015b6105ec6112b5565b8152602001906001900390816105e45790505b50905060005b84811015610871573373ffffffffffffffffffffffffffffffffffffffff16600560006001846106359190611850565b815260200190815260200160002060040160009054906101000a900473ffffffffffffffffffffffffffffffffffffffff1673ffffffffffffffffffffffffffffffffffffffff16141561085e576000600560006001846106969190611850565b81526020019081526020016000206000015490506000600560008381526020019081526020016000209050806040518060e0016040529081600082015481526020016001820160009054906101000a900473ffffffffffffffffffffffffffffffffffffffff1673ffffffffffffffffffffffffffffffffffffffff1673ffffffffffffffffffffffffffffffffffffffff168152602001600282015481526020016003820160009054906101000a900473ffffffffffffffffffffffffffffffffffffffff1673ffffffffffffffffffffffffffffffffffffffff1673ffffffffffffffffffffffffffffffffffffffff1681526020016004820160009054906101000a900473ffffffffffffffffffffffffffffffffffffffff1673ffffffffffffffffffffffffffffffffffffffff1673ffffffffffffffffffffffffffffffffffffffff168152602001600582015481526020016006820160009054906101000a900460ff161515151581525050848681518110610841577f4e487b7100000000000000000000000000000000000000000000000000000000600052603260045260246000fd5b60200260200101819052506001856108599190611850565b945050505b808061086990611934565b915050610605565b508094505050505090565b600260005414156108c2576040517f08c379a00000000000000000000000000000000000000000000000000000000081526004016108b9906117cb565b60405180910390fd5b60026000819055506000811161090d576040517f08c379a00000000000000000000000000000000000000000000000000000000081526004016109049061178b565b60405180910390fd5b6004543414610951576040517f08c379a0000000000000000000000000000000000000000000000000000000008152600401610948906117ab565b60405180910390fd5b61095b600161129f565b60006109676001611291565b90506040518060e001604052808281526020018573ffffffffffffffffffffffffffffffffffffffff1681526020018481526020013373ffffffffffffffffffffffffffffffffffffffff168152602001600073ffffffffffffffffffffffffffffffffffffffff16815260200183815260200160001515815250600560008381526020019081526020016000206000820151816000015560208201518160010160006101000a81548173ffffffffffffffffffffffffffffffffffffffff021916908373ffffffffffffffffffffffffffffffffffffffff1602179055506040820151816002015560608201518160030160006101000a81548173ffffffffffffffffffffffffffffffffffffffff021916908373ffffffffffffffffffffffffffffffffffffffff16021790555060808201518160040160006101000a81548173ffffffffffffffffffffffffffffffffffffffff021916908373ffffffffffffffffffffffffffffffffffffffff16021790555060a0820151816005015560c08201518160060160006101000a81548160ff0219169083151502179055509050508373ffffffffffffffffffffffffffffffffffffffff166323b872dd3330866040518463ffffffff1660e01b8152600401610b48939291906116cd565b600060405180830381600087803b158015610b6257600080fd5b505af1158015610b76573d6000803e3d6000fd5b50505050828473ffffffffffffffffffffffffffffffffffffffff16827f045dfa01dcba2b36aba1d3dc4a874f4b0c5d2fbeb8d2c4b34a7d88c8d8f929d1336000876000604051610bca9493929190611704565b60405180910390a4506001600081905550505050565b60003073ffffffffffffffffffffffffffffffffffffffff163373ffffffffffffffffffffffffffffffffffffffff161415610c1e57816004819055505b6004549050919050565b60026000541415610c6e576040517f08c379a0000000000000000000000000000000000000000000000000000000008152600401610c65906117cb565b60405180910390fd5b6002600081905550600060056000838152602001908152602001600020600501549050600060056000848152602001908152602001600020600201549050813414610cee576040517f08c379a0000000000000000000000000000000000000000000000000000000008152600401610ce59061176b565b60405180910390fd5b6005600084815260200190815260200160002060030160009054906101000a900473ffffffffffffffffffffffffffffffffffffffff1673ffffffffffffffffffffffffffffffffffffffff166108fc349081150290604051600060405180830381858888f19350505050158015610d6a573d6000803e3d6000fd5b508373ffffffffffffffffffffffffffffffffffffffff166323b872dd3033846040518463ffffffff1660e01b8152600401610da8939291906116cd565b600060405180830381600087803b158015610dc257600080fd5b505af1158015610dd6573d6000803e3d6000fd5b50505050336005600085815260200190815260200160002060040160006101000a81548173ffffffffffffffffffffffffffffffffffffffff021916908373ffffffffffffffffffffffffffffffffffffffff16021790555060016005600085815260200190815260200160002060060160006101000a81548160ff021916908315150217905550610e68600261129f565b600360009054906101000a900473ffffffffffffffffffffffffffffffffffffffff1673ffffffffffffffffffffffffffffffffffffffff166108fc6004549081150290604051600060405180830381858888f19350505050158015610ed2573d6000803e3d6000fd5b50505060016000819055505050565b60606000610eef6001611291565b905060008060005b83811015610f98573373ffffffffffffffffffffffffffffffffffffffff1660056000600184610f279190611850565b815260200190815260200160002060030160009054906101000a900473ffffffffffffffffffffffffffffffffffffffff1673ffffffffffffffffffffffffffffffffffffffff161415610f8557600183610f829190611850565b92505b8080610f9090611934565b915050610ef7565b5060008267ffffffffffffffff811115610fdb577f4e487b7100000000000000000000000000000000000000000000000000000000600052604160045260246000fd5b60405190808252806020026020018201604052801561101457816020015b6110016112b5565b815260200190600190039081610ff95790505b50905060005b84811015611286573373ffffffffffffffffffffffffffffffffffffffff166005600060018461104a9190611850565b815260200190815260200160002060030160009054906101000a900473ffffffffffffffffffffffffffffffffffffffff1673ffffffffffffffffffffffffffffffffffffffff161415611273576000600560006001846110ab9190611850565b81526020019081526020016000206000015490506000600560008381526020019081526020016000209050806040518060e0016040529081600082015481526020016001820160009054906101000a900473ffffffffffffffffffffffffffffffffffffffff1673ffffffffffffffffffffffffffffffffffffffff1673ffffffffffffffffffffffffffffffffffffffff168152602001600282015481526020016003820160009054906101000a900473ffffffffffffffffffffffffffffffffffffffff1673ffffffffffffffffffffffffffffffffffffffff1673ffffffffffffffffffffffffffffffffffffffff1681526020016004820160009054906101000a900473ffffffffffffffffffffffffffffffffffffffff1673ffffffffffffffffffffffffffffffffffffffff1673ffffffffffffffffffffffffffffffffffffffff168152602001600582015481526020016006820160009054906101000a900460ff161515151581525050848681518110611256577f4e487b7100000000000000000000000000000000000000000000000000000000600052603260045260246000fd5b602002602001018190525060018561126e9190611850565b945050505b808061127e90611934565b91505061101a565b508094505050505090565b600081600001549050919050565b6001816000016000828254019250508190555050565b6040518060e0016040528060008152602001600073ffffffffffffffffffffffffffffffffffffffff16815260200160008152602001600073ffffffffffffffffffffffffffffffffffffffff168152602001600073ffffffffffffffffffffffffffffffffffffffff168152602001600081526020016000151581525090565b600081359050611345816119ac565b92915050565b60008135905061135a816119c3565b92915050565b6000806040838503121561137357600080fd5b600061138185828601611336565b92505060206113928582860161134b565b9150509250929050565b6000806000606084860312156113b157600080fd5b60006113bf86828701611336565b93505060206113d08682870161134b565b92505060406113e18682870161134b565b9150509250925092565b6000602082840312156113fd57600080fd5b600061140b8482850161134b565b91505092915050565b60006114208383611621565b60e08301905092915050565b611435816118ec565b82525050565b611444816118da565b82525050565b611453816118da565b82525050565b600061146482611816565b61146e818561182e565b935061147983611806565b8060005b838110156114aa5781516114918882611414565b975061149c83611821565b92505060018101905061147d565b5085935050505092915050565b6114c0816118fe565b82525050565b6114cf816118fe565b82525050565b60006114e2603c8361183f565b91507f506c65617365207375626d6974207468652061736b696e67207072696365206960008301527f6e206f7264657220746f20636f6d706c657465207075726368617365000000006020830152604082019050919050565b600061154860188361183f565b91507f5072696365206d7573742062652061626f7665207a65726f00000000000000006000830152602082019050919050565b600061158860248361183f565b91507f5072696365206d75737420626520657175616c20746f206c697374696e67207060008301527f72696365000000000000000000000000000000000000000000000000000000006020830152604082019050919050565b60006115ee601f8361183f565b91507f5265656e7472616e637947756172643a207265656e7472616e742063616c6c006000830152602082019050919050565b60e08201600082015161163760008501826116af565b50602082015161164a602085018261143b565b50604082015161165d60408501826116af565b506060820151611670606085018261142c565b506080820151611683608085018261142c565b5060a082015161169660a08501826116af565b5060c08201516116a960c08501826114b7565b50505050565b6116b88161192a565b82525050565b6116c78161192a565b82525050565b60006060820190506116e2600083018661144a565b6116ef602083018561144a565b6116fc60408301846116be565b949350505050565b6000608082019050611719600083018761144a565b611726602083018661144a565b61173360408301856116be565b61174060608301846114c6565b95945050505050565b600060208201905081810360008301526117638184611459565b905092915050565b60006020820190508181036000830152611784816114d5565b9050919050565b600060208201905081810360008301526117a48161153b565b9050919050565b600060208201905081810360008301526117c48161157b565b9050919050565b600060208201905081810360008301526117e4816115e1565b9050919050565b600060208201905061180060008301846116be565b92915050565b6000819050602082019050919050565b600081519050919050565b6000602082019050919050565b600082825260208201905092915050565b600082825260208201905092915050565b600061185b8261192a565b91506118668361192a565b9250827fffffffffffffffffffffffffffffffffffffffffffffffffffffffffffffffff0382111561189b5761189a61197d565b5b828201905092915050565b60006118b18261192a565b91506118bc8361192a565b9250828210156118cf576118ce61197d565b5b828203905092915050565b60006118e58261190a565b9050919050565b60006118f78261190a565b9050919050565b60008115159050919050565b600073ffffffffffffffffffffffffffffffffffffffff82169050919050565b6000819050919050565b600061193f8261192a565b91507fffffffffffffffffffffffffffffffffffffffffffffffffffffffffffffffff8214156119725761197161197d565b5b600182019050919050565b7f4e487b7100000000000000000000000000000000000000000000000000000000600052601160045260246000fd5b6119b5816118da565b81146119c057600080fd5b50565b6119cc8161192a565b81146119d757600080fd5b5056fea2646970667358221220460d2e974348656c3b51e16e81fcc2acb1e3471af1165b090302ccd5802f3aa064736f6c63430008000033",
  "linkReferences": {},
  "deployedLinkReferences": {}
}